{
  "_format": "hh-sol-artifact-1",
  "contractName": "ERC1155Mock",
  "sourceName": "contracts/mocks/ERC1155Mock.sol",
  "abi": [
    {
      "inputs": [],
      "stateMutability": "nonpayable",
      "type": "constructor"
    },
    {
      "inputs": [
        {
          "internalType": "address",
          "name": "sender",
          "type": "address"
        },
        {
          "internalType": "uint256",
          "name": "balance",
          "type": "uint256"
        },
        {
          "internalType": "uint256",
          "name": "needed",
          "type": "uint256"
        },
        {
          "internalType": "uint256",
          "name": "tokenId",
          "type": "uint256"
        }
      ],
      "name": "ERC1155InsufficientBalance",
      "type": "error"
    },
    {
      "inputs": [
        {
          "internalType": "address",
          "name": "approver",
          "type": "address"
        }
      ],
      "name": "ERC1155InvalidApprover",
      "type": "error"
    },
    {
      "inputs": [
        {
          "internalType": "uint256",
          "name": "idsLength",
          "type": "uint256"
        },
        {
          "internalType": "uint256",
          "name": "valuesLength",
          "type": "uint256"
        }
      ],
      "name": "ERC1155InvalidArrayLength",
      "type": "error"
    },
    {
      "inputs": [
        {
          "internalType": "address",
          "name": "operator",
          "type": "address"
        }
      ],
      "name": "ERC1155InvalidOperator",
      "type": "error"
    },
    {
      "inputs": [
        {
          "internalType": "address",
          "name": "receiver",
          "type": "address"
        }
      ],
      "name": "ERC1155InvalidReceiver",
      "type": "error"
    },
    {
      "inputs": [
        {
          "internalType": "address",
          "name": "sender",
          "type": "address"
        }
      ],
      "name": "ERC1155InvalidSender",
      "type": "error"
    },
    {
      "inputs": [
        {
          "internalType": "address",
          "name": "operator",
          "type": "address"
        },
        {
          "internalType": "address",
          "name": "owner",
          "type": "address"
        }
      ],
      "name": "ERC1155MissingApprovalForAll",
      "type": "error"
    },
    {
      "anonymous": false,
      "inputs": [
        {
          "indexed": true,
          "internalType": "address",
          "name": "account",
          "type": "address"
        },
        {
          "indexed": true,
          "internalType": "address",
          "name": "operator",
          "type": "address"
        },
        {
          "indexed": false,
          "internalType": "bool",
          "name": "approved",
          "type": "bool"
        }
      ],
      "name": "ApprovalForAll",
      "type": "event"
    },
    {
      "anonymous": false,
      "inputs": [
        {
          "indexed": true,
          "internalType": "address",
          "name": "operator",
          "type": "address"
        },
        {
          "indexed": true,
          "internalType": "address",
          "name": "from",
          "type": "address"
        },
        {
          "indexed": true,
          "internalType": "address",
          "name": "to",
          "type": "address"
        },
        {
          "indexed": false,
          "internalType": "uint256[]",
          "name": "ids",
          "type": "uint256[]"
        },
        {
          "indexed": false,
          "internalType": "uint256[]",
          "name": "values",
          "type": "uint256[]"
        }
      ],
      "name": "TransferBatch",
      "type": "event"
    },
    {
      "anonymous": false,
      "inputs": [
        {
          "indexed": true,
          "internalType": "address",
          "name": "operator",
          "type": "address"
        },
        {
          "indexed": true,
          "internalType": "address",
          "name": "from",
          "type": "address"
        },
        {
          "indexed": true,
          "internalType": "address",
          "name": "to",
          "type": "address"
        },
        {
          "indexed": false,
          "internalType": "uint256",
          "name": "id",
          "type": "uint256"
        },
        {
          "indexed": false,
          "internalType": "uint256",
          "name": "value",
          "type": "uint256"
        }
      ],
      "name": "TransferSingle",
      "type": "event"
    },
    {
      "anonymous": false,
      "inputs": [
        {
          "indexed": false,
          "internalType": "string",
          "name": "value",
          "type": "string"
        },
        {
          "indexed": true,
          "internalType": "uint256",
          "name": "id",
          "type": "uint256"
        }
      ],
      "name": "URI",
      "type": "event"
    },
    {
      "inputs": [
        {
          "internalType": "address",
          "name": "account",
          "type": "address"
        },
        {
          "internalType": "uint256",
          "name": "id",
          "type": "uint256"
        }
      ],
      "name": "balanceOf",
      "outputs": [
        {
          "internalType": "uint256",
          "name": "",
          "type": "uint256"
        }
      ],
      "stateMutability": "view",
      "type": "function"
    },
    {
      "inputs": [
        {
          "internalType": "address[]",
          "name": "accounts",
          "type": "address[]"
        },
        {
          "internalType": "uint256[]",
          "name": "ids",
          "type": "uint256[]"
        }
      ],
      "name": "balanceOfBatch",
      "outputs": [
        {
          "internalType": "uint256[]",
          "name": "",
          "type": "uint256[]"
        }
      ],
      "stateMutability": "view",
      "type": "function"
    },
    {
      "inputs": [
        {
          "internalType": "address",
          "name": "account",
          "type": "address"
        },
        {
          "internalType": "address",
          "name": "operator",
          "type": "address"
        }
      ],
      "name": "isApprovedForAll",
      "outputs": [
        {
          "internalType": "bool",
          "name": "",
          "type": "bool"
        }
      ],
      "stateMutability": "view",
      "type": "function"
    },
    {
      "inputs": [
        {
          "internalType": "address",
          "name": "to",
          "type": "address"
        },
        {
          "internalType": "uint256",
          "name": "id",
          "type": "uint256"
        },
        {
          "internalType": "uint256",
          "name": "amount",
          "type": "uint256"
        }
      ],
      "name": "mint",
      "outputs": [],
      "stateMutability": "nonpayable",
      "type": "function"
    },
    {
      "inputs": [
        {
          "internalType": "address",
          "name": "from",
          "type": "address"
        },
        {
          "internalType": "address",
          "name": "to",
          "type": "address"
        },
        {
          "internalType": "uint256[]",
          "name": "ids",
          "type": "uint256[]"
        },
        {
          "internalType": "uint256[]",
          "name": "values",
          "type": "uint256[]"
        },
        {
          "internalType": "bytes",
          "name": "data",
          "type": "bytes"
        }
      ],
      "name": "safeBatchTransferFrom",
      "outputs": [],
      "stateMutability": "nonpayable",
      "type": "function"
    },
    {
      "inputs": [
        {
          "internalType": "address",
          "name": "from",
          "type": "address"
        },
        {
          "internalType": "address",
          "name": "to",
          "type": "address"
        },
        {
          "internalType": "uint256",
          "name": "id",
          "type": "uint256"
        },
        {
          "internalType": "uint256",
          "name": "value",
          "type": "uint256"
        },
        {
          "internalType": "bytes",
          "name": "data",
          "type": "bytes"
        }
      ],
      "name": "safeTransferFrom",
      "outputs": [],
      "stateMutability": "nonpayable",
      "type": "function"
    },
    {
      "inputs": [
        {
          "internalType": "address",
          "name": "operator",
          "type": "address"
        },
        {
          "internalType": "bool",
          "name": "approved",
          "type": "bool"
        }
      ],
      "name": "setApprovalForAll",
      "outputs": [],
      "stateMutability": "nonpayable",
      "type": "function"
    },
    {
      "inputs": [
        {
          "internalType": "bytes4",
          "name": "interfaceId",
          "type": "bytes4"
        }
      ],
      "name": "supportsInterface",
      "outputs": [
        {
          "internalType": "bool",
          "name": "",
          "type": "bool"
        }
      ],
      "stateMutability": "view",
      "type": "function"
    },
    {
      "inputs": [
        {
          "internalType": "uint256",
          "name": "",
          "type": "uint256"
        }
      ],
      "name": "uri",
      "outputs": [
        {
          "internalType": "string",
          "name": "",
          "type": "string"
        }
      ],
      "stateMutability": "view",
      "type": "function"
    }
  ],
  "bytecode": "0x608060405234801561001057600080fd5b506040805180820190915260018152600f60fb1b602082015261003281610038565b506101a5565b600261004482826100e7565b5050565b634e487b7160e01b600052604160045260246000fd5b600181811c9082168061007257607f821691505b60208210810361009257634e487b7160e01b600052602260045260246000fd5b50919050565b601f8211156100e257806000526020600020601f840160051c810160208510156100bf5750805b601f840160051c820191505b818110156100df57600081556001016100cb565b50505b505050565b81516001600160401b0381111561010057610100610048565b6101148161010e845461005e565b84610098565b6020601f82116001811461014857600083156101305750848201515b600019600385901b1c1916600184901b1784556100df565b600084815260208120601f198516915b828110156101785787850151825560209485019460019092019101610158565b50848210156101965786840151600019600387901b60f8161c191681555b50505050600190811b01905550565b611248806101b46000396000f3fe608060405234801561001057600080fd5b50600436106100a25760003560e01c80632eb2c2d611610076578063a22cb4651161005b578063a22cb46514610158578063e985e9c51461016b578063f242432a146101a757600080fd5b80632eb2c2d6146101255780634e1273f41461013857600080fd5b8062fdd58e146100a757806301ffc9a7146100cd5780630e89341c146100f0578063156e29f614610110575b600080fd5b6100ba6100b5366004610bc1565b6101ba565b6040519081526020015b60405180910390f35b6100e06100db366004610c04565b6101e2565b60405190151581526020016100c4565b6101036100fe366004610c28565b61027d565b6040516100c49190610c87565b61012361011e366004610c9a565b610311565b005b610123610133366004610e15565b610331565b61014b610146366004610ecb565b6103bc565b6040516100c49190610fd0565b610123610166366004610fe3565b610489565b6100e061017936600461101f565b6001600160a01b03918216600090815260016020908152604080832093909416825291909152205460ff1690565b6101236101b5366004611052565b610498565b6000818152602081815260408083206001600160a01b03861684529091529020545b92915050565b60006001600160e01b031982167fd9b67a2600000000000000000000000000000000000000000000000000000000148061024557506001600160e01b031982167f0e89341c00000000000000000000000000000000000000000000000000000000145b806101dc57507f01ffc9a7000000000000000000000000000000000000000000000000000000006001600160e01b03198316146101dc565b60606002805461028c906110ab565b80601f01602080910402602001604051908101604052809291908181526020018280546102b8906110ab565b80156103055780601f106102da57610100808354040283529160200191610305565b820191906000526020600020905b8154815290600101906020018083116102e857829003601f168201915b50505050509050919050565b61032c83838360405180602001604052806000815250610516565b505050565b336001600160a01b038616811480159061037157506001600160a01b0380871660009081526001602090815260408083209385168352929052205460ff16155b156103a75760405163711bec9160e11b81526001600160a01b038083166004830152871660248201526044015b60405180910390fd5b6103b48686868686610573565b505050505050565b606081518351146103ed5781518351604051635b05999160e01b81526004810192909252602482015260440161039e565b6000835167ffffffffffffffff81111561040957610409610ccd565b604051908082528060200260200182016040528015610432578160200160208202803683370190505b50905060005b84518110156104815760208082028601015161045c906020808402870101516101ba565b82828151811061046e5761046e6110e5565b6020908102919091010152600101610438565b509392505050565b6104943383836105da565b5050565b336001600160a01b03861681148015906104d857506001600160a01b0380871660009081526001602090815260408083209385168352929052205460ff16155b156105095760405163711bec9160e11b81526001600160a01b0380831660048301528716602482015260440161039e565b6103b4868686868661068a565b6001600160a01b03841661054057604051632bfa23e760e11b81526000600482015260240161039e565b604080516001808252602082018690528183019081526060820185905260808201909252906103b4600087848487610718565b6001600160a01b03841661059d57604051632bfa23e760e11b81526000600482015260240161039e565b6001600160a01b0385166105c657604051626a0d4560e21b81526000600482015260240161039e565b6105d38585858585610718565b5050505050565b6001600160a01b03821661061d576040517fced3e1000000000000000000000000000000000000000000000000000000000081526000600482015260240161039e565b6001600160a01b03838116600081815260016020908152604080832094871680845294825291829020805460ff191686151590811790915591519182527f17307eab39ab6107e8899845ad3d59bd9653f200f220920489ca2b5937696c31910160405180910390a3505050565b6001600160a01b0384166106b457604051632bfa23e760e11b81526000600482015260240161039e565b6001600160a01b0385166106dd57604051626a0d4560e21b81526000600482015260240161039e565b6040805160018082526020820186905281830190815260608201859052608082019092529061070f8787848487610718565b50505050505050565b6107248585858561076b565b6001600160a01b038416156105d3578251339060010361075d5760208481015190840151610756838989858589610998565b50506103b4565b6103b4818787878787610abc565b805182511461079a5781518151604051635b05999160e01b81526004810192909252602482015260440161039e565b3360005b83518110156108b9576020818102858101820151908501909101516001600160a01b0388161561086a576000828152602081815260408083206001600160a01b038c16845290915290205481811015610843576040517f03dee4c50000000000000000000000000000000000000000000000000000000081526001600160a01b038a16600482015260248101829052604481018390526064810184905260840161039e565b6000838152602081815260408083206001600160a01b038d16845290915290209082900390555b6001600160a01b038716156108af576000828152602081815260408083206001600160a01b038b168452909152812080548392906108a99084906110fb565b90915550505b505060010161079e565b50825160010361093a5760208301516000906020840151909150856001600160a01b0316876001600160a01b0316846001600160a01b03167fc3d58168c5ae7397731d063d5bbf3d657854427343f4c083240f7aacaa2d0f62858560405161092b929190918252602082015260400190565b60405180910390a450506105d3565b836001600160a01b0316856001600160a01b0316826001600160a01b03167f4a39dc06d4c0dbc64b70af90fd698a233a518aa5d07e595d983b8c0526c8f7fb868660405161098992919061111c565b60405180910390a45050505050565b6001600160a01b0384163b156103b45760405163f23a6e6160e01b81526001600160a01b0385169063f23a6e61906109dc908990899088908890889060040161114a565b6020604051808303816000875af1925050508015610a17575060408051601f3d908101601f19168201909252610a1491810190611192565b60015b610a80573d808015610a45576040519150601f19603f3d011682016040523d82523d6000602084013e610a4a565b606091505b508051600003610a7857604051632bfa23e760e11b81526001600160a01b038616600482015260240161039e565b805181602001fd5b6001600160e01b0319811663f23a6e6160e01b1461070f57604051632bfa23e760e11b81526001600160a01b038616600482015260240161039e565b6001600160a01b0384163b156103b45760405163bc197c8160e01b81526001600160a01b0385169063bc197c8190610b0090899089908890889088906004016111af565b6020604051808303816000875af1925050508015610b3b575060408051601f3d908101601f19168201909252610b3891810190611192565b60015b610b69573d808015610a45576040519150601f19603f3d011682016040523d82523d6000602084013e610a4a565b6001600160e01b0319811663bc197c8160e01b1461070f57604051632bfa23e760e11b81526001600160a01b038616600482015260240161039e565b80356001600160a01b0381168114610bbc57600080fd5b919050565b60008060408385031215610bd457600080fd5b610bdd83610ba5565b946020939093013593505050565b6001600160e01b031981168114610c0157600080fd5b50565b600060208284031215610c1657600080fd5b8135610c2181610beb565b9392505050565b600060208284031215610c3a57600080fd5b5035919050565b6000815180845260005b81811015610c6757602081850181015186830182015201610c4b565b506000602082860101526020601f19601f83011685010191505092915050565b602081526000610c216020830184610c41565b600080600060608486031215610caf57600080fd5b610cb884610ba5565b95602085013595506040909401359392505050565b634e487b7160e01b600052604160045260246000fd5b604051601f8201601f1916810167ffffffffffffffff81118282101715610d0c57610d0c610ccd565b604052919050565b600067ffffffffffffffff821115610d2e57610d2e610ccd565b5060051b60200190565b600082601f830112610d4957600080fd5b8135610d5c610d5782610d14565b610ce3565b8082825260208201915060208360051b860101925085831115610d7e57600080fd5b602085015b83811015610d9b578035835260209283019201610d83565b5095945050505050565b600082601f830112610db657600080fd5b813567ffffffffffffffff811115610dd057610dd0610ccd565b610de3601f8201601f1916602001610ce3565b818152846020838601011115610df857600080fd5b816020850160208301376000918101602001919091529392505050565b600080600080600060a08688031215610e2d57600080fd5b610e3686610ba5565b9450610e4460208701610ba5565b9350604086013567ffffffffffffffff811115610e6057600080fd5b610e6c88828901610d38565b935050606086013567ffffffffffffffff811115610e8957600080fd5b610e9588828901610d38565b925050608086013567ffffffffffffffff811115610eb257600080fd5b610ebe88828901610da5565b9150509295509295909350565b60008060408385031215610ede57600080fd5b823567ffffffffffffffff811115610ef557600080fd5b8301601f81018513610f0657600080fd5b8035610f14610d5782610d14565b8082825260208201915060208360051b850101925087831115610f3657600080fd5b6020840193505b82841015610f5f57610f4e84610ba5565b825260209384019390910190610f3d565b9450505050602083013567ffffffffffffffff811115610f7e57600080fd5b610f8a85828601610d38565b9150509250929050565b600081518084526020840193506020830160005b82811015610fc6578151865260209586019590910190600101610fa8565b5093949350505050565b602081526000610c216020830184610f94565b60008060408385031215610ff657600080fd5b610fff83610ba5565b91506020830135801515811461101457600080fd5b809150509250929050565b6000806040838503121561103257600080fd5b61103b83610ba5565b915061104960208401610ba5565b90509250929050565b600080600080600060a0868803121561106a57600080fd5b61107386610ba5565b945061108160208701610ba5565b93506040860135925060608601359150608086013567ffffffffffffffff811115610eb257600080fd5b600181811c908216806110bf57607f821691505b6020821081036110df57634e487b7160e01b600052602260045260246000fd5b50919050565b634e487b7160e01b600052603260045260246000fd5b808201808211156101dc57634e487b7160e01b600052601160045260246000fd5b60408152600061112f6040830185610f94565b82810360208401526111418185610f94565b95945050505050565b6001600160a01b03861681526001600160a01b038516602082015283604082015282606082015260a06080820152600061118760a0830184610c41565b979650505050505050565b6000602082840312156111a457600080fd5b8151610c2181610beb565b6001600160a01b03861681526001600160a01b038516602082015260a0604082015260006111e060a0830186610f94565b82810360608401526111f28186610f94565b905082810360808401526112068185610c41565b9897505050505050505056fea2646970667358221220bb6ef1566ec3ced9a4e56e471419c0ad62c165caf09ac9fe2b1383d60bf0da4164736f6c634300081c0033",
  "linkReferences": {},
  "deployedLinkReferences": {}
}