{
  "_format": "hh-sol-artifact-1",
  "contractName": "ERC721Mock",
  "sourceName": "contracts/mocks/ERC721Mock.sol",
  "abi": [
    {
      "inputs": [],
      "stateMutability": "nonpayable",
      "type": "constructor"
    },
    {
      "inputs": [
        {
          "internalType": "address",
          "name": "sender",
          "type": "address"
        },
        {
          "internalType": "uint256",
          "name": "tokenId",
          "type": "uint256"
        },
        {
          "internalType": "address",
          "name": "owner",
          "type": "address"
        }
      ],
      "name": "ERC721IncorrectOwner",
      "type": "error"
    },
    {
      "inputs": [
        {
          "internalType": "address",
          "name": "operator",
          "type": "address"
        },
        {
          "internalType": "uint256",
          "name": "tokenId",
          "type": "uint256"
        }
      ],
      "name": "ERC721InsufficientApproval",
      "type": "error"
    },
    {
      "inputs": [
        {
          "internalType": "address",
          "name": "approver",
          "type": "address"
        }
      ],
      "name": "ERC721InvalidApprover",
      "type": "error"
    },
    {
      "inputs": [
        {
          "internalType": "address",
          "name": "operator",
          "type": "address"
        }
      ],
      "name": "ERC721InvalidOperator",
      "type": "error"
    },
    {
      "inputs": [
        {
          "internalType": "address",
          "name": "owner",
          "type": "address"
        }
      ],
      "name": "ERC721InvalidOwner",
      "type": "error"
    },
    {
      "inputs": [
        {
          "internalType": "address",
          "name": "receiver",
          "type": "address"
        }
      ],
      "name": "ERC721InvalidReceiver",
      "type": "error"
    },
    {
      "inputs": [
        {
          "internalType": "address",
          "name": "sender",
          "type": "address"
        }
      ],
      "name": "ERC721InvalidSender",
      "type": "error"
    },
    {
      "inputs": [
        {
          "internalType": "uint256",
          "name": "tokenId",
          "type": "uint256"
        }
      ],
      "name": "ERC721NonexistentToken",
      "type": "error"
    },
    {
      "inputs": [
        {
          "internalType": "address",
          "name": "owner",
          "type": "address"
        }
      ],
      "name": "OwnableInvalidOwner",
      "type": "error"
    },
    {
      "inputs": [
        {
          "internalType": "address",
          "name": "account",
          "type": "address"
        }
      ],
      "name": "OwnableUnauthorizedAccount",
      "type": "error"
    },
    {
      "anonymous": false,
      "inputs": [
        {
          "indexed": true,
          "internalType": "address",
          "name": "owner",
          "type": "address"
        },
        {
          "indexed": true,
          "internalType": "address",
          "name": "approved",
          "type": "address"
        },
        {
          "indexed": true,
          "internalType": "uint256",
          "name": "tokenId",
          "type": "uint256"
        }
      ],
      "name": "Approval",
      "type": "event"
    },
    {
      "anonymous": false,
      "inputs": [
        {
          "indexed": true,
          "internalType": "address",
          "name": "owner",
          "type": "address"
        },
        {
          "indexed": true,
          "internalType": "address",
          "name": "operator",
          "type": "address"
        },
        {
          "indexed": false,
          "internalType": "bool",
          "name": "approved",
          "type": "bool"
        }
      ],
      "name": "ApprovalForAll",
      "type": "event"
    },
    {
      "anonymous": false,
      "inputs": [
        {
          "indexed": true,
          "internalType": "address",
          "name": "previousOwner",
          "type": "address"
        },
        {
          "indexed": true,
          "internalType": "address",
          "name": "newOwner",
          "type": "address"
        }
      ],
      "name": "OwnershipTransferred",
      "type": "event"
    },
    {
      "anonymous": false,
      "inputs": [
        {
          "indexed": true,
          "internalType": "address",
          "name": "from",
          "type": "address"
        },
        {
          "indexed": true,
          "internalType": "address",
          "name": "to",
          "type": "address"
        },
        {
          "indexed": true,
          "internalType": "uint256",
          "name": "tokenId",
          "type": "uint256"
        }
      ],
      "name": "Transfer",
      "type": "event"
    },
    {
      "inputs": [
        {
          "internalType": "address",
          "name": "to",
          "type": "address"
        },
        {
          "internalType": "uint256",
          "name": "tokenId",
          "type": "uint256"
        }
      ],
      "name": "approve",
      "outputs": [],
      "stateMutability": "nonpayable",
      "type": "function"
    },
    {
      "inputs": [
        {
          "internalType": "address",
          "name": "owner",
          "type": "address"
        }
      ],
      "name": "balanceOf",
      "outputs": [
        {
          "internalType": "uint256",
          "name": "",
          "type": "uint256"
        }
      ],
      "stateMutability": "view",
      "type": "function"
    },
    {
      "inputs": [
        {
          "internalType": "uint256",
          "name": "tokenId",
          "type": "uint256"
        }
      ],
      "name": "getApproved",
      "outputs": [
        {
          "internalType": "address",
          "name": "",
          "type": "address"
        }
      ],
      "stateMutability": "view",
      "type": "function"
    },
    {
      "inputs": [
        {
          "internalType": "address",
          "name": "owner",
          "type": "address"
        },
        {
          "internalType": "address",
          "name": "operator",
          "type": "address"
        }
      ],
      "name": "isApprovedForAll",
      "outputs": [
        {
          "internalType": "bool",
          "name": "",
          "type": "bool"
        }
      ],
      "stateMutability": "view",
      "type": "function"
    },
    {
      "inputs": [
        {
          "internalType": "address",
          "name": "to",
          "type": "address"
        }
      ],
      "name": "mint",
      "outputs": [],
      "stateMutability": "nonpayable",
      "type": "function"
    },
    {
      "inputs": [],
      "name": "name",
      "outputs": [
        {
          "internalType": "string",
          "name": "",
          "type": "string"
        }
      ],
      "stateMutability": "view",
      "type": "function"
    },
    {
      "inputs": [],
      "name": "owner",
      "outputs": [
        {
          "internalType": "address",
          "name": "",
          "type": "address"
        }
      ],
      "stateMutability": "view",
      "type": "function"
    },
    {
      "inputs": [
        {
          "internalType": "uint256",
          "name": "tokenId",
          "type": "uint256"
        }
      ],
      "name": "ownerOf",
      "outputs": [
        {
          "internalType": "address",
          "name": "",
          "type": "address"
        }
      ],
      "stateMutability": "view",
      "type": "function"
    },
    {
      "inputs": [],
      "name": "renounceOwnership",
      "outputs": [],
      "stateMutability": "nonpayable",
      "type": "function"
    },
    {
      "inputs": [
        {
          "internalType": "address",
          "name": "from",
          "type": "address"
        },
        {
          "internalType": "address",
          "name": "to",
          "type": "address"
        },
        {
          "internalType": "uint256",
          "name": "tokenId",
          "type": "uint256"
        }
      ],
      "name": "safeTransferFrom",
      "outputs": [],
      "stateMutability": "nonpayable",
      "type": "function"
    },
    {
      "inputs": [
        {
          "internalType": "address",
          "name": "from",
          "type": "address"
        },
        {
          "internalType": "address",
          "name": "to",
          "type": "address"
        },
        {
          "internalType": "uint256",
          "name": "tokenId",
          "type": "uint256"
        },
        {
          "internalType": "bytes",
          "name": "data",
          "type": "bytes"
        }
      ],
      "name": "safeTransferFrom",
      "outputs": [],
      "stateMutability": "nonpayable",
      "type": "function"
    },
    {
      "inputs": [
        {
          "internalType": "address",
          "name": "operator",
          "type": "address"
        },
        {
          "internalType": "bool",
          "name": "approved",
          "type": "bool"
        }
      ],
      "name": "setApprovalForAll",
      "outputs": [],
      "stateMutability": "nonpayable",
      "type": "function"
    },
    {
      "inputs": [
        {
          "internalType": "bytes4",
          "name": "interfaceId",
          "type": "bytes4"
        }
      ],
      "name": "supportsInterface",
      "outputs": [
        {
          "internalType": "bool",
          "name": "",
          "type": "bool"
        }
      ],
      "stateMutability": "view",
      "type": "function"
    },
    {
      "inputs": [],
      "name": "symbol",
      "outputs": [
        {
          "internalType": "string",
          "name": "",
          "type": "string"
        }
      ],
      "stateMutability": "view",
      "type": "function"
    },
    {
      "inputs": [
        {
          "internalType": "uint256",
          "name": "tokenId",
          "type": "uint256"
        }
      ],
      "name": "tokenURI",
      "outputs": [
        {
          "internalType": "string",
          "name": "",
          "type": "string"
        }
      ],
      "stateMutability": "view",
      "type": "function"
    },
    {
      "inputs": [
        {
          "internalType": "address",
          "name": "from",
          "type": "address"
        },
        {
          "internalType": "address",
          "name": "to",
          "type": "address"
        },
        {
          "internalType": "uint256",
          "name": "tokenId",
          "type": "uint256"
        }
      ],
      "name": "transferFrom",
      "outputs": [],
      "stateMutability": "nonpayable",
      "type": "function"
    },
    {
      "inputs": [
        {
          "internalType": "address",
          "name": "newOwner",
          "type": "address"
        }
      ],
      "name": "transferOwnership",
      "outputs": [],
      "stateMutability": "nonpayable",
      "type": "function"
    }
  ],
  "bytecode": "0x608060405234801561001057600080fd5b50336040518060400160405280600b81526020016a455243373231204d6f636b60a81b815250604051806040016040528060078152602001664d45524337323160c81b815250816000908161006591906101a8565b50600161007282826101a8565b5050506001600160a01b0381166100a357604051631e4fbdf760e01b81526000600482015260240160405180910390fd5b6100ac816100b7565b506000600755610266565b600680546001600160a01b038381166001600160a01b0319831681179093556040519116919082907f8be0079c531659141344cd1fd0a4f28419497f9722a3daafe3b4186f6b6457e090600090a35050565b634e487b7160e01b600052604160045260246000fd5b600181811c9082168061013357607f821691505b60208210810361015357634e487b7160e01b600052602260045260246000fd5b50919050565b601f8211156101a357806000526020600020601f840160051c810160208510156101805750805b601f840160051c820191505b818110156101a0576000815560010161018c565b50505b505050565b81516001600160401b038111156101c1576101c1610109565b6101d5816101cf845461011f565b84610159565b6020601f82116001811461020957600083156101f15750848201515b600019600385901b1c1916600184901b1784556101a0565b600084815260208120601f198516915b828110156102395787850151825560209485019460019092019101610219565b50848210156102575786840151600019600387901b60f8161c191681555b50505050600190811b01905550565b6112dd806102756000396000f3fe608060405234801561001057600080fd5b506004361061011b5760003560e01c806370a08231116100b2578063a22cb46511610081578063c87b56dd11610066578063c87b56dd14610251578063e985e9c514610264578063f2fde38b146102a057600080fd5b8063a22cb4651461022b578063b88d4fde1461023e57600080fd5b806370a08231146101e9578063715018a61461020a5780638da5cb5b1461021257806395d89b411461022357600080fd5b806323b872dd116100ee57806323b872dd1461019d57806342842e0e146101b05780636352211e146101c35780636a627842146101d657600080fd5b806301ffc9a71461012057806306fdde0314610148578063081812fc1461015d578063095ea7b314610188575b600080fd5b61013361012e366004610f19565b6102b3565b60405190151581526020015b60405180910390f35b610150610350565b60405161013f9190610f86565b61017061016b366004610f99565b6103e2565b6040516001600160a01b03909116815260200161013f565b61019b610196366004610fce565b61040b565b005b61019b6101ab366004610ff8565b61041a565b61019b6101be366004610ff8565b6104c3565b6101706101d1366004610f99565b6104e3565b61019b6101e4366004611035565b6104ee565b6101fc6101f7366004611035565b61051a565b60405190815260200161013f565b61019b61057b565b6006546001600160a01b0316610170565b61015061058f565b61019b610239366004611050565b61059e565b61019b61024c3660046110a2565b6105a9565b61015061025f366004610f99565b6105c1565b610133610272366004611186565b6001600160a01b03918216600090815260056020908152604080832093909416825291909152205460ff1690565b61019b6102ae366004611035565b61065b565b60006001600160e01b031982167f80ac58cd00000000000000000000000000000000000000000000000000000000148061031657506001600160e01b031982167f5b5e139f00000000000000000000000000000000000000000000000000000000145b8061034a57507f01ffc9a7000000000000000000000000000000000000000000000000000000006001600160e01b03198316145b92915050565b60606000805461035f906111b9565b80601f016020809104026020016040519081016040528092919081815260200182805461038b906111b9565b80156103d85780601f106103ad576101008083540402835291602001916103d8565b820191906000526020600020905b8154815290600101906020018083116103bb57829003601f168201915b5050505050905090565b60006103ed826106af565b506000828152600460205260409020546001600160a01b031661034a565b6104168282336106e8565b5050565b6001600160a01b03821661044957604051633250574960e11b8152600060048201526024015b60405180910390fd5b60006104568383336106f5565b9050836001600160a01b0316816001600160a01b0316146104bd576040517f64283d7b0000000000000000000000000000000000000000000000000000000081526001600160a01b0380861660048301526024820184905282166044820152606401610440565b50505050565b6104de838383604051806020016040528060008152506105a9565b505050565b600061034a826106af565b6104f66107fb565b60078054906000610506836111f3565b919050555061051781600754610841565b50565b60006001600160a01b03821661055f576040517f89c62b6400000000000000000000000000000000000000000000000000000000815260006004820152602401610440565b506001600160a01b031660009081526003602052604090205490565b6105836107fb565b61058d600061085b565b565b60606001805461035f906111b9565b6104163383836108ba565b6105b484848461041a565b6104bd3385858585610972565b60606105cc826106af565b50600061060960408051808201909152601b81527f68747470733a2f2f6d796170692e636f6d2f6d657461646174612f0000000000602082015290565b905060008151116106295760405180602001604052806000815250610654565b8061063384610a9d565b60405160200161064492919061121a565b6040516020818303038152906040525b9392505050565b6106636107fb565b6001600160a01b0381166106a6576040517f1e4fbdf700000000000000000000000000000000000000000000000000000000815260006004820152602401610440565b6105178161085b565b6000818152600260205260408120546001600160a01b03168061034a57604051637e27328960e01b815260048101849052602401610440565b6104de8383836001610b3d565b6000828152600260205260408120546001600160a01b039081169083161561072257610722818486610c88565b6001600160a01b038116156107605761073f600085600080610b3d565b6001600160a01b038116600090815260036020526040902080546000190190555b6001600160a01b0385161561078f576001600160a01b0385166000908152600360205260409020805460010190555b600084815260026020526040808220805473ffffffffffffffffffffffffffffffffffffffff19166001600160a01b0389811691821790925591518793918516917fddf252ad1be2c89b69c2b068fc378daa952ba7f163c4a11628f55a4df523b3ef91a4949350505050565b6006546001600160a01b0316331461058d576040517f118cdaa7000000000000000000000000000000000000000000000000000000008152336004820152602401610440565b610416828260405180602001604052806000815250610d05565b600680546001600160a01b0383811673ffffffffffffffffffffffffffffffffffffffff19831681179093556040519116919082907f8be0079c531659141344cd1fd0a4f28419497f9722a3daafe3b4186f6b6457e090600090a35050565b6001600160a01b038216610905576040517f5b08ba180000000000000000000000000000000000000000000000000000000081526001600160a01b0383166004820152602401610440565b6001600160a01b03838116600081815260056020908152604080832094871680845294825291829020805460ff191686151590811790915591519182527f17307eab39ab6107e8899845ad3d59bd9653f200f220920489ca2b5937696c31910160405180910390a3505050565b6001600160a01b0383163b15610a9657604051630a85bd0160e11b81526001600160a01b0384169063150b7a02906109b4908890889087908790600401611249565b6020604051808303816000875af19250505080156109ef575060408051601f3d908101601f191682019092526109ec9181019061128a565b60015b610a58573d808015610a1d576040519150601f19603f3d011682016040523d82523d6000602084013e610a22565b606091505b508051600003610a5057604051633250574960e11b81526001600160a01b0385166004820152602401610440565b805181602001fd5b6001600160e01b03198116630a85bd0160e11b14610a9457604051633250574960e11b81526001600160a01b0385166004820152602401610440565b505b5050505050565b60606000610aaa83610d1d565b600101905060008167ffffffffffffffff811115610aca57610aca61108c565b6040519080825280601f01601f191660200182016040528015610af4576020820181803683370190505b5090508181016020015b600019017f3031323334353637383961626364656600000000000000000000000000000000600a86061a8153600a8504945084610afe57509392505050565b8080610b5157506001600160a01b03821615155b15610c4b576000610b61846106af565b90506001600160a01b03831615801590610b8d5750826001600160a01b0316816001600160a01b031614155b8015610bbf57506001600160a01b0380821660009081526005602090815260408083209387168352929052205460ff16155b15610c01576040517fa9fbf51f0000000000000000000000000000000000000000000000000000000081526001600160a01b0384166004820152602401610440565b8115610c495783856001600160a01b0316826001600160a01b03167f8c5be1e5ebec7d5bd14f71427d1e84f3dd0314c0f7b2291e5b200ac8c7c3b92560405160405180910390a45b505b50506000908152600460205260409020805473ffffffffffffffffffffffffffffffffffffffff19166001600160a01b0392909216919091179055565b610c93838383610dff565b6104de576001600160a01b038316610cc157604051637e27328960e01b815260048101829052602401610440565b6040517f177e802f0000000000000000000000000000000000000000000000000000000081526001600160a01b038316600482015260248101829052604401610440565b610d0f8383610e85565b6104de336000858585610972565b6000807a184f03e93ff9f4daa797ed6e38ed64bf6a1f0100000000000000008310610d66577a184f03e93ff9f4daa797ed6e38ed64bf6a1f010000000000000000830492506040015b6d04ee2d6d415b85acef81000000008310610d92576d04ee2d6d415b85acef8100000000830492506020015b662386f26fc100008310610db057662386f26fc10000830492506010015b6305f5e1008310610dc8576305f5e100830492506008015b6127108310610ddc57612710830492506004015b60648310610dee576064830492506002015b600a831061034a5760010192915050565b60006001600160a01b03831615801590610e7d5750826001600160a01b0316846001600160a01b03161480610e5957506001600160a01b0380851660009081526005602090815260408083209387168352929052205460ff165b80610e7d57506000828152600460205260409020546001600160a01b038481169116145b949350505050565b6001600160a01b038216610eaf57604051633250574960e11b815260006004820152602401610440565b6000610ebd838360006106f5565b90506001600160a01b038116156104de576040517f73c6ac6e00000000000000000000000000000000000000000000000000000000815260006004820152602401610440565b6001600160e01b03198116811461051757600080fd5b600060208284031215610f2b57600080fd5b813561065481610f03565b60005b83811015610f51578181015183820152602001610f39565b50506000910152565b60008151808452610f72816020860160208601610f36565b601f01601f19169290920160200192915050565b6020815260006106546020830184610f5a565b600060208284031215610fab57600080fd5b5035919050565b80356001600160a01b0381168114610fc957600080fd5b919050565b60008060408385031215610fe157600080fd5b610fea83610fb2565b946020939093013593505050565b60008060006060848603121561100d57600080fd5b61101684610fb2565b925061102460208501610fb2565b929592945050506040919091013590565b60006020828403121561104757600080fd5b61065482610fb2565b6000806040838503121561106357600080fd5b61106c83610fb2565b91506020830135801515811461108157600080fd5b809150509250929050565b634e487b7160e01b600052604160045260246000fd5b600080600080608085870312156110b857600080fd5b6110c185610fb2565b93506110cf60208601610fb2565b925060408501359150606085013567ffffffffffffffff8111156110f257600080fd5b8501601f8101871361110357600080fd5b803567ffffffffffffffff81111561111d5761111d61108c565b604051601f8201601f19908116603f0116810167ffffffffffffffff8111828210171561114c5761114c61108c565b60405281815282820160200189101561116457600080fd5b8160208401602083013760006020838301015280935050505092959194509250565b6000806040838503121561119957600080fd5b6111a283610fb2565b91506111b060208401610fb2565b90509250929050565b600181811c908216806111cd57607f821691505b6020821081036111ed57634e487b7160e01b600052602260045260246000fd5b50919050565b60006001820161121357634e487b7160e01b600052601160045260246000fd5b5060010190565b6000835161122c818460208801610f36565b835190830190611240818360208801610f36565b01949350505050565b6001600160a01b03851681526001600160a01b03841660208201528260408201526080606082015260006112806080830184610f5a565b9695505050505050565b60006020828403121561129c57600080fd5b815161065481610f0356fea264697066735822122072fd04ca3c73016ce4464a87792eb9286a853ff814500abd28f8265ddef1006064736f6c634300081c0033",
  "linkReferences": {},
  "deployedLinkReferences": {}
}