{
  "_format": "hh-sol-artifact-1",
  "contractName": "DEDUAssess",
  "sourceName": "contracts/DEDUAssess.sol",
  "abi": [
    {
      "anonymous": false,
      "inputs": [
        {
          "indexed": false,
          "internalType": "uint256",
          "name": "projectId",
          "type": "uint256"
        },
        {
          "indexed": false,
          "internalType": "string",
          "name": "name",
          "type": "string"
        },
        {
          "indexed": false,
          "internalType": "address",
          "name": "mentor",
          "type": "address"
        }
      ],
      "name": "ProjectCreated",
      "type": "event"
    },
    {
      "anonymous": false,
      "inputs": [
        {
          "indexed": false,
          "internalType": "uint256",
          "name": "projectId",
          "type": "uint256"
        },
        {
          "indexed": false,
          "internalType": "address",
          "name": "student",
          "type": "address"
        }
      ],
      "name": "TaskRejected",
      "type": "event"
    },
    {
      "anonymous": false,
      "inputs": [
        {
          "indexed": false,
          "internalType": "uint256",
          "name": "projectId",
          "type": "uint256"
        },
        {
          "indexed": false,
          "internalType": "address",
          "name": "student",
          "type": "address"
        },
        {
          "indexed": false,
          "internalType": "bytes32",
          "name": "taskHash",
          "type": "bytes32"
        }
      ],
      "name": "TaskSubmitted",
      "type": "event"
    },
    {
      "anonymous": false,
      "inputs": [
        {
          "indexed": false,
          "internalType": "uint256",
          "name": "projectId",
          "type": "uint256"
        },
        {
          "indexed": false,
          "internalType": "address",
          "name": "student",
          "type": "address"
        },
        {
          "indexed": false,
          "internalType": "bytes32",
          "name": "taskHash",
          "type": "bytes32"
        },
        {
          "indexed": false,
          "internalType": "uint8",
          "name": "grade",
          "type": "uint8"
        }
      ],
      "name": "TaskVerified",
      "type": "event"
    },
    {
      "inputs": [
        {
          "internalType": "string",
          "name": "name",
          "type": "string"
        },
        {
          "internalType": "string",
          "name": "description",
          "type": "string"
        },
        {
          "internalType": "uint256",
          "name": "deadline",
          "type": "uint256"
        },
        {
          "internalType": "bool",
          "name": "allowResubmission",
          "type": "bool"
        },
        {
          "internalType": "address[]",
          "name": "verifiers",
          "type": "address[]"
        },
        {
          "internalType": "address[]",
          "name": "allowedStudents",
          "type": "address[]"
        }
      ],
      "name": "createProject",
      "outputs": [],
      "stateMutability": "nonpayable",
      "type": "function"
    },
    {
      "inputs": [
        {
          "internalType": "uint256",
          "name": "projectId",
          "type": "uint256"
        }
      ],
      "name": "getProject",
      "outputs": [
        {
          "components": [
            {
              "internalType": "string",
              "name": "name",
              "type": "string"
            },
            {
              "internalType": "string",
              "name": "description",
              "type": "string"
            },
            {
              "internalType": "uint256",
              "name": "deadline",
              "type": "uint256"
            },
            {
              "internalType": "address",
              "name": "mentor",
              "type": "address"
            },
            {
              "internalType": "bool",
              "name": "isRestricted",
              "type": "bool"
            },
            {
              "internalType": "bool",
              "name": "allowResubmission",
              "type": "bool"
            }
          ],
          "internalType": "struct DEDUAssess.ProjectView",
          "name": "",
          "type": "tuple"
        }
      ],
      "stateMutability": "view",
      "type": "function"
    },
    {
      "inputs": [
        {
          "internalType": "uint256",
          "name": "projectId",
          "type": "uint256"
        },
        {
          "internalType": "address",
          "name": "student",
          "type": "address"
        }
      ],
      "name": "getSubmission",
      "outputs": [
        {
          "components": [
            {
              "internalType": "bytes32",
              "name": "taskHash",
              "type": "bytes32"
            },
            {
              "internalType": "bool",
              "name": "isVerified",
              "type": "bool"
            },
            {
              "internalType": "bool",
              "name": "isRejected",
              "type": "bool"
            },
            {
              "internalType": "uint8",
              "name": "grade",
              "type": "uint8"
            }
          ],
          "internalType": "struct DEDUAssess.Submission",
          "name": "",
          "type": "tuple"
        }
      ],
      "stateMutability": "view",
      "type": "function"
    },
    {
      "inputs": [
        {
          "internalType": "uint256",
          "name": "projectId",
          "type": "uint256"
        },
        {
          "internalType": "address",
          "name": "student",
          "type": "address"
        }
      ],
      "name": "isAllowedStudent",
      "outputs": [
        {
          "internalType": "bool",
          "name": "",
          "type": "bool"
        }
      ],
      "stateMutability": "view",
      "type": "function"
    },
    {
      "inputs": [
        {
          "internalType": "uint256",
          "name": "projectId",
          "type": "uint256"
        },
        {
          "internalType": "address",
          "name": "user",
          "type": "address"
        }
      ],
      "name": "isVerifier",
      "outputs": [
        {
          "internalType": "bool",
          "name": "",
          "type": "bool"
        }
      ],
      "stateMutability": "view",
      "type": "function"
    },
    {
      "inputs": [],
      "name": "projectCount",
      "outputs": [
        {
          "internalType": "uint256",
          "name": "",
          "type": "uint256"
        }
      ],
      "stateMutability": "view",
      "type": "function"
    },
    {
      "inputs": [
        {
          "internalType": "uint256",
          "name": "projectId",
          "type": "uint256"
        },
        {
          "internalType": "address",
          "name": "student",
          "type": "address"
        }
      ],
      "name": "rejectTask",
      "outputs": [],
      "stateMutability": "nonpayable",
      "type": "function"
    },
    {
      "inputs": [
        {
          "internalType": "uint256",
          "name": "projectId",
          "type": "uint256"
        },
        {
          "internalType": "bytes32",
          "name": "taskHash",
          "type": "bytes32"
        }
      ],
      "name": "submitTask",
      "outputs": [],
      "stateMutability": "nonpayable",
      "type": "function"
    },
    {
      "inputs": [
        {
          "internalType": "bytes32",
          "name": "",
          "type": "bytes32"
        }
      ],
      "name": "verifiedTasks",
      "outputs": [
        {
          "internalType": "uint8",
          "name": "",
          "type": "uint8"
        }
      ],
      "stateMutability": "view",
      "type": "function"
    },
    {
      "inputs": [
        {
          "internalType": "uint256",
          "name": "projectId",
          "type": "uint256"
        },
        {
          "internalType": "address",
          "name": "student",
          "type": "address"
        },
        {
          "internalType": "uint8",
          "name": "grade",
          "type": "uint8"
        }
      ],
      "name": "verifyTask",
      "outputs": [],
      "stateMutability": "nonpayable",
      "type": "function"
    }
  ],
  "bytecode": "0x6080604052348015600f57600080fd5b506127838061001f6000396000f3fe608060405234801561001057600080fd5b506004361061009e5760003560e01c80636eedc2c3116100665780636eedc2c3146101595780637b6ffbca14610189578063a3dc85d8146101a5578063ecdc73d8146101d5578063f0f3f2c8146101f15761009e565b80632df145e2146100a357806330709953146100bf57806336fbad26146100ef57806354a18c811461010d57806355f0e22114610129575b600080fd5b6100bd60048036038101906100b89190611635565b610221565b005b6100d960048036038101906100d491906116d3565b610635565b6040516100e6919061172e565b60405180910390f35b6100f76106ec565b6040516101049190611758565b60405180910390f35b610127600480360381019061012291906116d3565b6106f2565b005b610143600480360381019061013e91906116d3565b61099a565b6040516101509190611802565b60405180910390f35b610173600480360381019061016e919061181d565b610b51565b6040516101809190611859565b60405180910390f35b6101a3600480360381019061019e9190611aae565b610b71565b005b6101bf60048036038101906101ba91906116d3565b610e62565b6040516101cc919061172e565b60405180910390f35b6101ef60048036038101906101ea9190611bd7565b610f3e565b005b61020b60048036038101906102069190611c2a565b611235565b6040516102189190611d84565b60405180910390f35b8160018161022f9190611dd5565b6003541015610273576040517f08c379a000000000000000000000000000000000000000000000000000000000815260040161026a90611e66565b60405180910390fd5b8261027e8133610635565b6102bd576040517f08c379a00000000000000000000000000000000000000000000000000000000081526004016102b490611ed2565b60405180910390fd5b60008085815260200190815260200160002060020154421115610315576040517f08c379a000000000000000000000000000000000000000000000000000000000815260040161030c90611f3e565b60405180910390fd5b6001600085815260200190815260200160002060003373ffffffffffffffffffffffffffffffffffffffff1673ffffffffffffffffffffffffffffffffffffffff16815260200190815260200160002060010160009054906101000a900460ff16156103b6576040517f08c379a00000000000000000000000000000000000000000000000000000000081526004016103ad90611faa565b60405180910390fd5b60008085815260200190815260200160002060060160019054906101000a900460ff16610476576000801b6001600086815260200190815260200160002060003373ffffffffffffffffffffffffffffffffffffffff1673ffffffffffffffffffffffffffffffffffffffff1681526020019081526020016000206000015414610475576040517f08c379a000000000000000000000000000000000000000000000000000000000815260040161046c90612016565b60405180910390fd5b5b826001600086815260200190815260200160002060003373ffffffffffffffffffffffffffffffffffffffff1673ffffffffffffffffffffffffffffffffffffffff168152602001908152602001600020600001540361050b576040517f08c379a000000000000000000000000000000000000000000000000000000000815260040161050290612082565b60405180910390fd5b6040518060800160405280848152602001600015158152602001600015158152602001600060ff168152506001600086815260200190815260200160002060003373ffffffffffffffffffffffffffffffffffffffff1673ffffffffffffffffffffffffffffffffffffffff1681526020019081526020016000206000820151816000015560208201518160010160006101000a81548160ff02191690831515021790555060408201518160010160016101000a81548160ff02191690831515021790555060608201518160010160026101000a81548160ff021916908360ff1602179055509050507f426c8a62b17e201c4e6c6b4364193ae08f72edc8f5e2aa0b9aa3848f5bb5d954843385604051610627939291906120c0565b60405180910390a150505050565b60006001836106449190611dd5565b60035410158015610675575060008084815260200190815260200160002060060160009054906101000a900460ff16155b1561068357600190506106e6565b60008084815260200190815260200160002060050160008373ffffffffffffffffffffffffffffffffffffffff1673ffffffffffffffffffffffffffffffffffffffff16815260200190815260200160002060009054906101000a900460ff1690505b92915050565b60035481565b816001816107009190611dd5565b6003541015610744576040517f08c379a000000000000000000000000000000000000000000000000000000000815260040161073b90611e66565b60405180910390fd5b8261074f8133610e62565b61078e576040517f08c379a000000000000000000000000000000000000000000000000000000000815260040161078590612143565b60405180910390fd5b83836000801b6001600084815260200190815260200160002060008373ffffffffffffffffffffffffffffffffffffffff1673ffffffffffffffffffffffffffffffffffffffff1681526020019081526020016000206000015403610828576040517f08c379a000000000000000000000000000000000000000000000000000000000815260040161081f906121af565b60405180910390fd5b60006001600088815260200190815260200160002060008773ffffffffffffffffffffffffffffffffffffffff1673ffffffffffffffffffffffffffffffffffffffff16815260200190815260200160002090506108ed81604051806080016040529081600082015481526020016001820160009054906101000a900460ff161515151581526020016001820160019054906101000a900460ff161515151581526020016001820160029054906101000a900460ff1660ff1660ff16815250506114a6565b600180600089815260200190815260200160002060008873ffffffffffffffffffffffffffffffffffffffff1673ffffffffffffffffffffffffffffffffffffffff16815260200190815260200160002060010160016101000a81548160ff0219169083151502179055507fae1c93c6393c5abab2eaef81c691beeb381335c7913caabf8feaa0b24bd03cc087876040516109899291906121cf565b60405180910390a150505050505050565b6109a2611533565b826001816109b09190611dd5565b60035410156109f4576040517f08c379a00000000000000000000000000000000000000000000000000000000081526004016109eb90611e66565b60405180910390fd5b83836000801b6001600084815260200190815260200160002060008373ffffffffffffffffffffffffffffffffffffffff1673ffffffffffffffffffffffffffffffffffffffff1681526020019081526020016000206000015403610a8e576040517f08c379a0000000000000000000000000000000000000000000000000000000008152600401610a85906121af565b60405180910390fd5b6001600087815260200190815260200160002060008673ffffffffffffffffffffffffffffffffffffffff1673ffffffffffffffffffffffffffffffffffffffff168152602001908152602001600020604051806080016040529081600082015481526020016001820160009054906101000a900460ff161515151581526020016001820160019054906101000a900460ff161515151581526020016001820160029054906101000a900460ff1660ff1660ff1681525050935050505092915050565b60026020528060005260406000206000915054906101000a900460ff1681565b834210610bb3576040517f08c379a0000000000000000000000000000000000000000000000000000000008152600401610baa90612244565b60405180910390fd5b600060036000815480929190610bc890612264565b919050559050866000808381526020019081526020016000206000019081610bf091906124b8565b50856000808381526020019081526020016000206001019081610c1391906124b8565b5084600080838152602001908152602001600020600201819055503360008083815260200190815260200160002060030160006101000a81548173ffffffffffffffffffffffffffffffffffffffff021916908373ffffffffffffffffffffffffffffffffffffffff160217905550600082511160008083815260200190815260200160002060060160006101000a81548160ff0219169083151502179055508360008083815260200190815260200160002060060160016101000a81548160ff02191690831515021790555060005b8351811015610d7e5760016000808481526020019081526020016000206004016000868481518110610d1857610d1761258a565b5b602002602001015173ffffffffffffffffffffffffffffffffffffffff1673ffffffffffffffffffffffffffffffffffffffff16815260200190815260200160002060006101000a81548160ff0219169083151502179055508080600101915050610ce3565b5060005b8251811015610e1d5760016000808481526020019081526020016000206005016000858481518110610db757610db661258a565b5b602002602001015173ffffffffffffffffffffffffffffffffffffffff1673ffffffffffffffffffffffffffffffffffffffff16815260200190815260200160002060006101000a81548160ff0219169083151502179055508080600101915050610d82565b507fc0c54fed07481d0998e1446b2c13759606bf4f26b78306307413ac4c4309aa82818833604051610e51939291906125f2565b60405180910390a150505050505050565b60008173ffffffffffffffffffffffffffffffffffffffff1660008085815260200190815260200160002060030160009054906101000a900473ffffffffffffffffffffffffffffffffffffffff1673ffffffffffffffffffffffffffffffffffffffff1603610ed55760019050610f38565b60008084815260200190815260200160002060040160008373ffffffffffffffffffffffffffffffffffffffff1673ffffffffffffffffffffffffffffffffffffffff16815260200190815260200160002060009054906101000a900460ff1690505b92915050565b82600181610f4c9190611dd5565b6003541015610f90576040517f08c379a0000000000000000000000000000000000000000000000000000000008152600401610f8790611e66565b60405180910390fd5b83610f9b8133610e62565b610fda576040517f08c379a0000000000000000000000000000000000000000000000000000000008152600401610fd190612143565b60405180910390fd5b84846000801b6001600084815260200190815260200160002060008373ffffffffffffffffffffffffffffffffffffffff1673ffffffffffffffffffffffffffffffffffffffff1681526020019081526020016000206000015403611074576040517f08c379a000000000000000000000000000000000000000000000000000000000815260040161106b906121af565b60405180910390fd5b60648560ff1611156110bb576040517f08c379a00000000000000000000000000000000000000000000000000000000081526004016110b29061267c565b60405180910390fd5b60006001600089815260200190815260200160002060008873ffffffffffffffffffffffffffffffffffffffff1673ffffffffffffffffffffffffffffffffffffffff168152602001908152602001600020905061118081604051806080016040529081600082015481526020016001820160009054906101000a900460ff161515151581526020016001820160019054906101000a900460ff161515151581526020016001820160029054906101000a900460ff1660ff1660ff16815250506114a6565b60018160010160006101000a81548160ff021916908315150217905550858160010160026101000a81548160ff021916908360ff16021790555085600260008360000154815260200190815260200160002060006101000a81548160ff021916908360ff1602179055507fc6cf4ce30052affe12edae63dae941869d52153a95733272c5364d954336042d8888836000015489604051611223949392919061269c565b60405180910390a15050505050505050565b61123d611565565b8160018161124b9190611dd5565b600354101561128f576040517f08c379a000000000000000000000000000000000000000000000000000000000815260040161128690611e66565b60405180910390fd5b6040518060c0016040528060008086815260200190815260200160002060000180546112ba906122db565b80601f01602080910402602001604051908101604052809291908181526020018280546112e6906122db565b80156113335780601f1061130857610100808354040283529160200191611333565b820191906000526020600020905b81548152906001019060200180831161131657829003601f168201915b50505050508152602001600080868152602001908152602001600020600101805461135d906122db565b80601f0160208091040260200160405190810160405280929190818152602001828054611389906122db565b80156113d65780601f106113ab576101008083540402835291602001916113d6565b820191906000526020600020905b8154815290600101906020018083116113b957829003601f168201915b5050505050815260200160008086815260200190815260200160002060020154815260200160008086815260200190815260200160002060030160009054906101000a900473ffffffffffffffffffffffffffffffffffffffff1673ffffffffffffffffffffffffffffffffffffffff16815260200160008086815260200190815260200160002060060160009054906101000a900460ff161515815260200160008086815260200190815260200160002060060160019054906101000a900460ff161515815250915050919050565b8060200151156114eb576040517f08c379a00000000000000000000000000000000000000000000000000000000081526004016114e290611faa565b60405180910390fd5b806040015115611530576040517f08c379a00000000000000000000000000000000000000000000000000000000081526004016115279061272d565b60405180910390fd5b50565b604051806080016040528060008019168152602001600015158152602001600015158152602001600060ff1681525090565b6040518060c00160405280606081526020016060815260200160008152602001600073ffffffffffffffffffffffffffffffffffffffff1681526020016000151581526020016000151581525090565b6000604051905090565b600080fd5b600080fd5b6000819050919050565b6115dc816115c9565b81146115e757600080fd5b50565b6000813590506115f9816115d3565b92915050565b6000819050919050565b611612816115ff565b811461161d57600080fd5b50565b60008135905061162f81611609565b92915050565b6000806040838503121561164c5761164b6115bf565b5b600061165a858286016115ea565b925050602061166b85828601611620565b9150509250929050565b600073ffffffffffffffffffffffffffffffffffffffff82169050919050565b60006116a082611675565b9050919050565b6116b081611695565b81146116bb57600080fd5b50565b6000813590506116cd816116a7565b92915050565b600080604083850312156116ea576116e96115bf565b5b60006116f8858286016115ea565b9250506020611709858286016116be565b9150509250929050565b60008115159050919050565b61172881611713565b82525050565b6000602082019050611743600083018461171f565b92915050565b611752816115c9565b82525050565b600060208201905061176d6000830184611749565b92915050565b61177c816115ff565b82525050565b61178b81611713565b82525050565b600060ff82169050919050565b6117a781611791565b82525050565b6080820160008201516117c36000850182611773565b5060208201516117d66020850182611782565b5060408201516117e96040850182611782565b5060608201516117fc606085018261179e565b50505050565b600060808201905061181760008301846117ad565b92915050565b600060208284031215611833576118326115bf565b5b600061184184828501611620565b91505092915050565b61185381611791565b82525050565b600060208201905061186e600083018461184a565b92915050565b600080fd5b600080fd5b6000601f19601f8301169050919050565b7f4e487b7100000000000000000000000000000000000000000000000000000000600052604160045260246000fd5b6118c78261187e565b810181811067ffffffffffffffff821117156118e6576118e561188f565b5b80604052505050565b60006118f96115b5565b905061190582826118be565b919050565b600067ffffffffffffffff8211156119255761192461188f565b5b61192e8261187e565b9050602081019050919050565b82818337600083830152505050565b600061195d6119588461190a565b6118ef565b90508281526020810184848401111561197957611978611879565b5b61198484828561193b565b509392505050565b600082601f8301126119a1576119a0611874565b5b81356119b184826020860161194a565b91505092915050565b6119c381611713565b81146119ce57600080fd5b50565b6000813590506119e0816119ba565b92915050565b600067ffffffffffffffff821115611a0157611a0061188f565b5b602082029050602081019050919050565b600080fd5b6000611a2a611a25846119e6565b6118ef565b90508083825260208201905060208402830185811115611a4d57611a4c611a12565b5b835b81811015611a765780611a6288826116be565b845260208401935050602081019050611a4f565b5050509392505050565b600082601f830112611a9557611a94611874565b5b8135611aa5848260208601611a17565b91505092915050565b60008060008060008060c08789031215611acb57611aca6115bf565b5b600087013567ffffffffffffffff811115611ae957611ae86115c4565b5b611af589828a0161198c565b965050602087013567ffffffffffffffff811115611b1657611b156115c4565b5b611b2289828a0161198c565b9550506040611b3389828a016115ea565b9450506060611b4489828a016119d1565b935050608087013567ffffffffffffffff811115611b6557611b646115c4565b5b611b7189828a01611a80565b92505060a087013567ffffffffffffffff811115611b9257611b916115c4565b5b611b9e89828a01611a80565b9150509295509295509295565b611bb481611791565b8114611bbf57600080fd5b50565b600081359050611bd181611bab565b92915050565b600080600060608486031215611bf057611bef6115bf565b5b6000611bfe868287016115ea565b9350506020611c0f868287016116be565b9250506040611c2086828701611bc2565b9150509250925092565b600060208284031215611c4057611c3f6115bf565b5b6000611c4e848285016115ea565b91505092915050565b600081519050919050565b600082825260208201905092915050565b60005b83811015611c91578082015181840152602081019050611c76565b60008484015250505050565b6000611ca882611c57565b611cb28185611c62565b9350611cc2818560208601611c73565b611ccb8161187e565b840191505092915050565b611cdf816115c9565b82525050565b611cee81611695565b82525050565b600060c0830160008301518482036000860152611d118282611c9d565b91505060208301518482036020860152611d2b8282611c9d565b9150506040830151611d406040860182611cd6565b506060830151611d536060860182611ce5565b506080830151611d666080860182611782565b5060a0830151611d7960a0860182611782565b508091505092915050565b60006020820190508181036000830152611d9e8184611cf4565b905092915050565b7f4e487b7100000000000000000000000000000000000000000000000000000000600052601160045260246000fd5b6000611de0826115c9565b9150611deb836115c9565b9250828201905080821115611e0357611e02611da6565b5b92915050565b600082825260208201905092915050565b7f50726f6a65637420646f6573206e6f7420657869737473000000000000000000600082015250565b6000611e50601783611e09565b9150611e5b82611e1a565b602082019050919050565b60006020820190508181036000830152611e7f81611e43565b9050919050565b7f4e6f7420616c6c6f77656420746f207375626d69740000000000000000000000600082015250565b6000611ebc601583611e09565b9150611ec782611e86565b602082019050919050565b60006020820190508181036000830152611eeb81611eaf565b9050919050565b7f446561646c696e65207061737365640000000000000000000000000000000000600082015250565b6000611f28600f83611e09565b9150611f3382611ef2565b602082019050919050565b60006020820190508181036000830152611f5781611f1b565b9050919050565b7f5461736b20616c72656164792076657269666965640000000000000000000000600082015250565b6000611f94601583611e09565b9150611f9f82611f5e565b602082019050919050565b60006020820190508181036000830152611fc381611f87565b9050919050565b7f52657375626d697373696f6e206e6f7420616c6c6f7765640000000000000000600082015250565b6000612000601883611e09565b915061200b82611fca565b602082019050919050565b6000602082019050818103600083015261202f81611ff3565b9050919050565b7f5468652073616d65207461736b20616c7265616479207375626d697474656400600082015250565b600061206c601f83611e09565b915061207782612036565b602082019050919050565b6000602082019050818103600083015261209b8161205f565b9050919050565b6120ab81611695565b82525050565b6120ba816115ff565b82525050565b60006060820190506120d56000830186611749565b6120e260208301856120a2565b6120ef60408301846120b1565b949350505050565b7f4e6f742061207665726966696572000000000000000000000000000000000000600082015250565b600061212d600e83611e09565b9150612138826120f7565b602082019050919050565b6000602082019050818103600083015261215c81612120565b9050919050565b7f5375626d697373696f6e20646f6573206e6f7420657869737400000000000000600082015250565b6000612199601983611e09565b91506121a482612163565b602082019050919050565b600060208201905081810360008301526121c88161218c565b9050919050565b60006040820190506121e46000830185611749565b6121f160208301846120a2565b9392505050565b7f496e76616c696420646561646c696e6500000000000000000000000000000000600082015250565b600061222e601083611e09565b9150612239826121f8565b602082019050919050565b6000602082019050818103600083015261225d81612221565b9050919050565b600061226f826115c9565b91507fffffffffffffffffffffffffffffffffffffffffffffffffffffffffffffffff82036122a1576122a0611da6565b5b600182019050919050565b7f4e487b7100000000000000000000000000000000000000000000000000000000600052602260045260246000fd5b600060028204905060018216806122f357607f821691505b602082108103612306576123056122ac565b5b50919050565b60008190508160005260206000209050919050565b60006020601f8301049050919050565b600082821b905092915050565b60006008830261236e7fffffffffffffffffffffffffffffffffffffffffffffffffffffffffffffffff82612331565b6123788683612331565b95508019841693508086168417925050509392505050565b6000819050919050565b60006123b56123b06123ab846115c9565b612390565b6115c9565b9050919050565b6000819050919050565b6123cf8361239a565b6123e36123db826123bc565b84845461233e565b825550505050565b600090565b6123f86123eb565b6124038184846123c6565b505050565b5b818110156124275761241c6000826123f0565b600181019050612409565b5050565b601f82111561246c5761243d8161230c565b61244684612321565b81016020851015612455578190505b61246961246185612321565b830182612408565b50505b505050565b600082821c905092915050565b600061248f60001984600802612471565b1980831691505092915050565b60006124a8838361247e565b9150826002028217905092915050565b6124c182611c57565b67ffffffffffffffff8111156124da576124d961188f565b5b6124e482546122db565b6124ef82828561242b565b600060209050601f8311600181146125225760008415612510578287015190505b61251a858261249c565b865550612582565b601f1984166125308661230c565b60005b8281101561255857848901518255600182019150602085019450602081019050612533565b868310156125755784890151612571601f89168261247e565b8355505b6001600288020188555050505b505050505050565b7f4e487b7100000000000000000000000000000000000000000000000000000000600052603260045260246000fd5b60006125c482611c57565b6125ce8185611e09565b93506125de818560208601611c73565b6125e78161187e565b840191505092915050565b60006060820190506126076000830186611749565b818103602083015261261981856125b9565b905061262860408301846120a2565b949350505050565b7f496e76616c696420677261646500000000000000000000000000000000000000600082015250565b6000612666600d83611e09565b915061267182612630565b602082019050919050565b6000602082019050818103600083015261269581612659565b9050919050565b60006080820190506126b16000830187611749565b6126be60208301866120a2565b6126cb60408301856120b1565b6126d8606083018461184a565b95945050505050565b7f5461736b20616c72656164792072656a65637465640000000000000000000000600082015250565b6000612717601583611e09565b9150612722826126e1565b602082019050919050565b600060208201905081810360008301526127468161270a565b905091905056fea26469706673582212202e5a46496757533ea4c2bfb625d5a02b18854764fae85fb036733c4906d590e864736f6c634300081c0033",
  "linkReferences": {},
  "deployedLinkReferences": {}
}