{
  "_format": "hh-sol-artifact-1",
  "contractName": "AuctionHouse",
  "sourceName": "contracts/Auction.sol",
  "abi": [
    {
      "inputs": [
        {
          "internalType": "uint256",
          "name": "_fee",
          "type": "uint256"
        }
      ],
      "stateMutability": "nonpayable",
      "type": "constructor"
    },
    {
      "inputs": [
        {
          "internalType": "address",
          "name": "owner",
          "type": "address"
        }
      ],
      "name": "OwnableInvalidOwner",
      "type": "error"
    },
    {
      "inputs": [
        {
          "internalType": "address",
          "name": "account",
          "type": "address"
        }
      ],
      "name": "OwnableUnauthorizedAccount",
      "type": "error"
    },
    {
      "inputs": [
        {
          "internalType": "address",
          "name": "token",
          "type": "address"
        }
      ],
      "name": "SafeERC20FailedOperation",
      "type": "error"
    },
    {
      "anonymous": false,
      "inputs": [
        {
          "indexed": true,
          "internalType": "uint256",
          "name": "auctionId",
          "type": "uint256"
        },
        {
          "indexed": false,
          "internalType": "address",
          "name": "arbiter",
          "type": "address"
        }
      ],
      "name": "ArbiterSet",
      "type": "event"
    },
    {
      "anonymous": false,
      "inputs": [
        {
          "indexed": true,
          "internalType": "uint256",
          "name": "auctionId",
          "type": "uint256"
        },
        {
          "indexed": false,
          "internalType": "address",
          "name": "creator",
          "type": "address"
        }
      ],
      "name": "AuctionCreated",
      "type": "event"
    },
    {
      "anonymous": false,
      "inputs": [
        {
          "indexed": true,
          "internalType": "uint256",
          "name": "auctionId",
          "type": "uint256"
        },
        {
          "indexed": false,
          "internalType": "address",
          "name": "winner",
          "type": "address"
        },
        {
          "indexed": false,
          "internalType": "uint256",
          "name": "finalPrice",
          "type": "uint256"
        }
      ],
      "name": "AuctionFinalized",
      "type": "event"
    },
    {
      "anonymous": false,
      "inputs": [
        {
          "indexed": true,
          "internalType": "uint256",
          "name": "auctionId",
          "type": "uint256"
        },
        {
          "indexed": false,
          "internalType": "address",
          "name": "bidder",
          "type": "address"
        },
        {
          "indexed": false,
          "internalType": "uint256",
          "name": "refundedAmount",
          "type": "uint256"
        }
      ],
      "name": "AuctionRefunded",
      "type": "event"
    },
    {
      "anonymous": false,
      "inputs": [
        {
          "indexed": true,
          "internalType": "uint256",
          "name": "auctionId",
          "type": "uint256"
        },
        {
          "indexed": false,
          "internalType": "uint256",
          "name": "bidId",
          "type": "uint256"
        },
        {
          "indexed": false,
          "internalType": "address",
          "name": "bidder",
          "type": "address"
        },
        {
          "indexed": false,
          "internalType": "uint256",
          "name": "amount",
          "type": "uint256"
        }
      ],
      "name": "BidPlaced",
      "type": "event"
    },
    {
      "anonymous": false,
      "inputs": [
        {
          "indexed": true,
          "internalType": "uint256",
          "name": "auctionId",
          "type": "uint256"
        },
        {
          "indexed": false,
          "internalType": "uint256",
          "name": "bidId",
          "type": "uint256"
        },
        {
          "indexed": false,
          "internalType": "address",
          "name": "bidder",
          "type": "address"
        },
        {
          "indexed": false,
          "internalType": "uint256",
          "name": "amount",
          "type": "uint256"
        }
      ],
      "name": "BidWithdrawn",
      "type": "event"
    },
    {
      "anonymous": false,
      "inputs": [
        {
          "indexed": true,
          "internalType": "uint256",
          "name": "auctionId",
          "type": "uint256"
        },
        {
          "indexed": false,
          "internalType": "address",
          "name": "arbiter",
          "type": "address"
        }
      ],
      "name": "NewArbiterRequest",
      "type": "event"
    },
    {
      "anonymous": false,
      "inputs": [
        {
          "indexed": true,
          "internalType": "address",
          "name": "previousOwner",
          "type": "address"
        },
        {
          "indexed": true,
          "internalType": "address",
          "name": "newOwner",
          "type": "address"
        }
      ],
      "name": "OwnershipTransferred",
      "type": "event"
    },
    {
      "anonymous": false,
      "inputs": [
        {
          "indexed": true,
          "internalType": "uint256",
          "name": "auctionId",
          "type": "uint256"
        },
        {
          "indexed": false,
          "internalType": "address",
          "name": "to",
          "type": "address"
        },
        {
          "indexed": false,
          "internalType": "uint256",
          "name": "amount",
          "type": "uint256"
        },
        {
          "indexed": false,
          "internalType": "uint256",
          "name": "assetId",
          "type": "uint256"
        }
      ],
      "name": "WithdrawAssets",
      "type": "event"
    },
    {
      "inputs": [
        {
          "internalType": "uint256",
          "name": "auctionId",
          "type": "uint256"
        }
      ],
      "name": "approveRefund",
      "outputs": [],
      "stateMutability": "nonpayable",
      "type": "function"
    },
    {
      "inputs": [],
      "name": "auctionCount",
      "outputs": [
        {
          "internalType": "uint256",
          "name": "",
          "type": "uint256"
        }
      ],
      "stateMutability": "view",
      "type": "function"
    },
    {
      "inputs": [
        {
          "internalType": "uint256",
          "name": "",
          "type": "uint256"
        },
        {
          "internalType": "uint256",
          "name": "",
          "type": "uint256"
        }
      ],
      "name": "bids",
      "outputs": [
        {
          "internalType": "uint256",
          "name": "id",
          "type": "uint256"
        },
        {
          "internalType": "address",
          "name": "sender",
          "type": "address"
        },
        {
          "internalType": "uint256",
          "name": "price",
          "type": "uint256"
        },
        {
          "internalType": "uint256",
          "name": "date",
          "type": "uint256"
        },
        {
          "internalType": "bool",
          "name": "withdrawn",
          "type": "bool"
        }
      ],
      "stateMutability": "view",
      "type": "function"
    },
    {
      "inputs": [
        {
          "internalType": "uint256",
          "name": "amount",
          "type": "uint256"
        }
      ],
      "name": "calcFee",
      "outputs": [
        {
          "internalType": "uint256",
          "name": "",
          "type": "uint256"
        }
      ],
      "stateMutability": "view",
      "type": "function"
    },
    {
      "inputs": [
        {
          "internalType": "address",
          "name": "newOwner",
          "type": "address"
        }
      ],
      "name": "changeOwner",
      "outputs": [],
      "stateMutability": "nonpayable",
      "type": "function"
    },
    {
      "inputs": [
        {
          "internalType": "string",
          "name": "title",
          "type": "string"
        },
        {
          "internalType": "enum AuctionHouse.AssetType",
          "name": "assetType",
          "type": "uint8"
        },
        {
          "internalType": "uint256",
          "name": "startPrice",
          "type": "uint256"
        },
        {
          "internalType": "uint256",
          "name": "bidStep",
          "type": "uint256"
        },
        {
          "internalType": "uint256",
          "name": "endTime",
          "type": "uint256"
        },
        {
          "internalType": "address",
          "name": "assetContract",
          "type": "address"
        },
        {
          "internalType": "uint256",
          "name": "assetId",
          "type": "uint256"
        },
        {
          "internalType": "uint256",
          "name": "assetAmount",
          "type": "uint256"
        },
        {
          "internalType": "address",
          "name": "arbiter",
          "type": "address"
        }
      ],
      "name": "createAuction",
      "outputs": [],
      "stateMutability": "payable",
      "type": "function"
    },
    {
      "inputs": [],
      "name": "feeRate",
      "outputs": [
        {
          "internalType": "uint256",
          "name": "",
          "type": "uint256"
        }
      ],
      "stateMutability": "view",
      "type": "function"
    },
    {
      "inputs": [
        {
          "internalType": "uint256",
          "name": "auctionId",
          "type": "uint256"
        }
      ],
      "name": "getAuction",
      "outputs": [
        {
          "components": [
            {
              "internalType": "string",
              "name": "title",
              "type": "string"
            },
            {
              "internalType": "address",
              "name": "creator",
              "type": "address"
            },
            {
              "internalType": "uint256",
              "name": "bidsCount",
              "type": "uint256"
            },
            {
              "internalType": "uint256",
              "name": "endTime",
              "type": "uint256"
            },
            {
              "internalType": "uint256",
              "name": "startPrice",
              "type": "uint256"
            },
            {
              "internalType": "uint256",
              "name": "bidStep",
              "type": "uint256"
            },
            {
              "components": [
                {
                  "internalType": "uint256",
                  "name": "id",
                  "type": "uint256"
                },
                {
                  "internalType": "address",
                  "name": "sender",
                  "type": "address"
                },
                {
                  "internalType": "uint256",
                  "name": "price",
                  "type": "uint256"
                },
                {
                  "internalType": "uint256",
                  "name": "date",
                  "type": "uint256"
                },
                {
                  "internalType": "bool",
                  "name": "withdrawn",
                  "type": "bool"
                }
              ],
              "internalType": "struct AuctionHouse.Bid",
              "name": "bestBid",
              "type": "tuple"
            },
            {
              "components": [
                {
                  "internalType": "enum AuctionHouse.AssetType",
                  "name": "kind",
                  "type": "uint8"
                },
                {
                  "components": [
                    {
                      "internalType": "address",
                      "name": "arbiter",
                      "type": "address"
                    }
                  ],
                  "internalType": "struct AuctionHouse.RealAssetView",
                  "name": "real",
                  "type": "tuple"
                },
                {
                  "components": [
                    {
                      "internalType": "uint256",
                      "name": "amount",
                      "type": "uint256"
                    },
                    {
                      "internalType": "contract IERC20",
                      "name": "tokenContract",
                      "type": "address"
                    }
                  ],
                  "internalType": "struct AuctionHouse.ERC20Asset",
                  "name": "erc20",
                  "type": "tuple"
                },
                {
                  "components": [
                    {
                      "internalType": "uint256",
                      "name": "id",
                      "type": "uint256"
                    },
                    {
                      "internalType": "contract IERC721",
                      "name": "tokenContract",
                      "type": "address"
                    }
                  ],
                  "internalType": "struct AuctionHouse.ERC721Asset",
                  "name": "erc721",
                  "type": "tuple"
                },
                {
                  "components": [
                    {
                      "internalType": "uint256",
                      "name": "id",
                      "type": "uint256"
                    },
                    {
                      "internalType": "uint256",
                      "name": "amount",
                      "type": "uint256"
                    },
                    {
                      "internalType": "contract IERC1155",
                      "name": "tokenContract",
                      "type": "address"
                    }
                  ],
                  "internalType": "struct AuctionHouse.ERC1155Asset",
                  "name": "erc1155",
                  "type": "tuple"
                }
              ],
              "internalType": "struct AuctionHouse.AssetView",
              "name": "asset",
              "type": "tuple"
            },
            {
              "internalType": "enum AuctionHouse.AuctionStatus",
              "name": "status",
              "type": "uint8"
            }
          ],
          "internalType": "struct AuctionHouse.AuctionView",
          "name": "",
          "type": "tuple"
        }
      ],
      "stateMutability": "view",
      "type": "function"
    },
    {
      "inputs": [
        {
          "internalType": "address",
          "name": "",
          "type": "address"
        },
        {
          "internalType": "address",
          "name": "",
          "type": "address"
        },
        {
          "internalType": "uint256",
          "name": "",
          "type": "uint256"
        },
        {
          "internalType": "uint256",
          "name": "",
          "type": "uint256"
        },
        {
          "internalType": "bytes",
          "name": "",
          "type": "bytes"
        }
      ],
      "name": "onERC1155Received",
      "outputs": [
        {
          "internalType": "bytes4",
          "name": "",
          "type": "bytes4"
        }
      ],
      "stateMutability": "pure",
      "type": "function"
    },
    {
      "inputs": [],
      "name": "owner",
      "outputs": [
        {
          "internalType": "address",
          "name": "",
          "type": "address"
        }
      ],
      "stateMutability": "view",
      "type": "function"
    },
    {
      "inputs": [
        {
          "internalType": "uint256",
          "name": "auctionId",
          "type": "uint256"
        }
      ],
      "name": "placeBid",
      "outputs": [],
      "stateMutability": "payable",
      "type": "function"
    },
    {
      "inputs": [],
      "name": "renounceOwnership",
      "outputs": [],
      "stateMutability": "nonpayable",
      "type": "function"
    },
    {
      "inputs": [
        {
          "internalType": "uint256",
          "name": "auctionId",
          "type": "uint256"
        }
      ],
      "name": "requestWithdraw",
      "outputs": [],
      "stateMutability": "nonpayable",
      "type": "function"
    },
    {
      "inputs": [
        {
          "internalType": "uint256",
          "name": "auctionId",
          "type": "uint256"
        },
        {
          "internalType": "uint256",
          "name": "bidId",
          "type": "uint256"
        }
      ],
      "name": "takeMyBid",
      "outputs": [],
      "stateMutability": "nonpayable",
      "type": "function"
    },
    {
      "inputs": [
        {
          "internalType": "address",
          "name": "newOwner",
          "type": "address"
        }
      ],
      "name": "transferOwnership",
      "outputs": [],
      "stateMutability": "nonpayable",
      "type": "function"
    },
    {
      "inputs": [
        {
          "internalType": "uint256",
          "name": "auctionId",
          "type": "uint256"
        },
        {
          "internalType": "address",
          "name": "newArbiter",
          "type": "address"
        }
      ],
      "name": "verifyNewArbiter",
      "outputs": [],
      "stateMutability": "nonpayable",
      "type": "function"
    },
    {
      "inputs": [],
      "name": "withdrawFees",
      "outputs": [],
      "stateMutability": "nonpayable",
      "type": "function"
    }
  ],
  "bytecode": "0x608060405234801561001057600080fd5b50604051613d2b380380613d2b83398101604081905261002f91610116565b338061005657604051631e4fbdf760e01b8152600060048201526024015b60405180910390fd5b61005f816100c6565b5060648111158015610072575060018110155b6100be5760405162461bcd60e51b815260206004820152601d60248201527f466565206d757374206265206265747765656e203120616e6420313030000000604482015260640161004d565b60065561012f565b600080546001600160a01b038381166001600160a01b0319831681178455604051919092169283917f8be0079c531659141344cd1fd0a4f28419497f9722a3daafe3b4186f6b6457e09190a35050565b60006020828403121561012857600080fd5b5051919050565b613bed8061013e6000396000f3fe60806040526004361061010e5760003560e01c80637b3c4baa116100a55780639ee4f47d11610074578063b61f559f11610059578063b61f559f146102eb578063f23a6e611461030b578063f2fde38b1461038257600080fd5b80639ee4f47d146102b8578063a6f9dae1146102cb57600080fd5b80637b3c4baa146102155780638da5cb5b14610267578063978bbdb91461028f5780639979ef45146102a557600080fd5b8063715018a6116100e1578063715018a614610193578063745400c9146101a857806375dc7d8c146101c857806378bd7935146101e857600080fd5b80630282399a146101135780632ad7157314610135578063348a71a61461015e578063476343ee1461017e575b600080fd5b34801561011f57600080fd5b5061013361012e36600461351f565b6103a2565b005b34801561014157600080fd5b5061014b60045481565b6040519081526020015b60405180910390f35b34801561016a57600080fd5b50610133610179366004613541565b610772565b34801561018a57600080fd5b50610133610b5a565b34801561019f57600080fd5b50610133610bf7565b3480156101b457600080fd5b506101336101c3366004613541565b610c0b565b3480156101d457600080fd5b5061014b6101e3366004613541565b610ee5565b3480156101f457600080fd5b50610208610203366004613541565b610f07565b6040516101559190613673565b34801561022157600080fd5b5061023561023036600461351f565b61115a565b604080519586526001600160a01b0390941660208601529284019190915260608301521515608082015260a001610155565b34801561027357600080fd5b506000546040516001600160a01b039091168152602001610155565b34801561029b57600080fd5b5061014b60065481565b6101336102b3366004613541565b6111b5565b6101336102c6366004613799565b611768565b3480156102d757600080fd5b506101336102e63660046138b5565b6119da565b3480156102f757600080fd5b506101336103063660046138d9565b6119ee565b34801561031757600080fd5b50610351610326366004613909565b7ff23a6e61000000000000000000000000000000000000000000000000000000009695505050505050565b6040517fffffffff000000000000000000000000000000000000000000000000000000009091168152602001610155565b34801561038e57600080fd5b5061013361039d3660046138b5565b611e43565b6000828152600160208190526040909120015482906001600160a01b031633036104135760405162461bcd60e51b815260206004820152601c60248201527f41732063726561746f7220796f752063616e277420646f20746869730000000060448201526064015b60405180910390fd5b6000838152600160205260409020600201548211156104745760405162461bcd60e51b815260206004820152600e60248201527f496e76616c696420626964206964000000000000000000000000000000000000604482015260640161040a565b6000838152600260205260409020805433919084908110610497576104976139b6565b60009182526020909120600160059092020101546001600160a01b0316146105275760405162461bcd60e51b815260206004820152602d60248201527f596f752063616e6e6f7420776974686472617720746f6b656e7320746861742060448201527f617265206e6f7420796f75727300000000000000000000000000000000000000606482015260840161040a565b6000838152600260205260409020805483908110610547576105476139b6565b600091825260209091206004600590920201015460ff16156105d15760405162461bcd60e51b815260206004820152602260248201527f546f6b656e732068617665206265656e20616c7265616479207769746864726160448201527f776e000000000000000000000000000000000000000000000000000000000000606482015260840161040a565b6000838152600160205260409020600601548290036106325760405162461bcd60e51b815260206004820152601860248201527f596f752063616e742074616b652061637475616c206269640000000000000000604482015260640161040a565b6000838152600260205260409020805433916108fc9185908110610658576106586139b6565b9060005260206000209060050201600201549081150290604051600060405180830381858888f19350505050158015610695573d6000803e3d6000fd5b506000838152600260205260409020805460019190849081106106ba576106ba6139b6565b906000526020600020906005020160040160006101000a81548160ff021916908315150217905550827f343dbf7cf5952b78f69fd86b25d030d987e8efb40ff3bfac7cfcad1f1bc38666833360026000888152602001908152602001600020868154811061072a5761072a6139b6565b906000526020600020906005020160020154604051610765939291909283526001600160a01b03919091166020830152604082015260600190565b60405180910390a2505050565b600081815260016020526040902060030154819042116107d45760405162461bcd60e51b815260206004820152601360248201527f41756374696f6e206e6f74206578706972656400000000000000000000000000604482015260640161040a565b60008281526001602052604090206002015482906108345760405162461bcd60e51b815260206004820152601360248201527f41756374696f6e20686173206e6f206269647300000000000000000000000000604482015260640161040a565b8233158015906108a55750600081815260016020819052604090912001546001600160a01b031633148061088157506000818152600160205260409020600701546001600160a01b031633145b806108a557506000818152600160205260409020600c01546001600160a01b031633145b6108e75760405162461bcd60e51b8152602060048201526013602482015272596f752063616e27742063616c6c207468697360681b604482015260640161040a565b6000848152600160205260409020600a0154849060ff161561094b5760405162461bcd60e51b815260206004820152601f60248201527f42696420616c72656164792068617665206265656e2077697468647261776e00604482015260640161040a565b6000858152600160205260408120600b015460ff166003811115610971576109716135a0565b146109be5760405162461bcd60e51b815260206004820152601f60248201527f5468697320617373657420646f6e7420737570706f727420726566756e647300604482015260640161040a565b6000858152600160208181526040808420338552600f8101909252808420805460ff191684179055918101546001600160a01b031683529082205490919060ff1615610a125780610a0e816139e2565b9150505b60078201546001600160a01b03166000908152600f8301602052604090205460ff1615610a475780610a43816139e2565b9150505b600c8201546001600160a01b03166000908152600f8301602052604090205460ff1615610a7c5780610a78816139e2565b9150505b60028110158015610a99575060078201546001600160a01b031633145b15610b5157600782015460088301546040516001600160a01b039092169181156108fc0291906000818181858888f19350505050158015610ade573d6000803e3d6000fd5b5060178201805460ff19908116600217909155600a83018054909116600117905560078201546008830154604080516001600160a01b039093168352602083019190915288917f1fbb358145c3622775bcaea65f7176defe61eb7cec5e487e70486ae4083a37b491015b60405180910390a25b50505050505050565b610b62611e97565b600060055411610bb45760405162461bcd60e51b815260206004820152601260248201527f456d70747920666565732062616c616e63650000000000000000000000000000604482015260640161040a565b600080546005546040516001600160a01b039092169281156108fc029290818181858888f19350505050158015610bef573d6000803e3d6000fd5b506000600555565b610bff611e97565b610c096000611edd565b565b60008181526001602052604090206003015481904211610c6d5760405162461bcd60e51b815260206004820152601360248201527f41756374696f6e206e6f74206578706972656400000000000000000000000000604482015260640161040a565b813315801590610cde5750600081815260016020819052604090912001546001600160a01b0316331480610cba57506000818152600160205260409020600701546001600160a01b031633145b80610cde57506000818152600160205260409020600c01546001600160a01b031633145b610d205760405162461bcd60e51b8152602060048201526013602482015272596f752063616e27742063616c6c207468697360681b604482015260640161040a565b600083815260016020526040812090601782015460ff166003811115610d4857610d486135a0565b1480610d6c57506003601782015460ff166003811115610d6a57610d6a6135a0565b145b80610d8f57506002601782015460ff166003811115610d8d57610d8d6135a0565b145b610ddb5760405162461bcd60e51b815260206004820152601960248201527f41756374696f6e20616c72656164792066696e616c697a656400000000000000604482015260640161040a565b60078101546001600160a01b0316610e0c576001810154610e069085906001600160a01b0316611f2d565b50505050565b6002601782015460ff166003811115610e2757610e276135a0565b03610ec75760018101546001600160a01b03163314610eae5760405162461bcd60e51b815260206004820152602560248201527f4f6e6c792063726561746f722063616e2077697468647261772069662072656660448201527f756e646564000000000000000000000000000000000000000000000000000000606482015260840161040a565b6001810154610e069085906001600160a01b0316611f2d565b60178101805460ff19166003179055610e068185612105565b505050565b6000606460065483610ef791906139fb565b610f019190613a12565b92915050565b610f0f613422565b604080516101208101825260008481526001602052919091208054829190610f3690613a34565b80601f0160208091040260200160405190810160405280929190818152602001828054610f6290613a34565b8015610faf5780601f10610f8457610100808354040283529160200191610faf565b820191906000526020600020905b815481529060010190602001808311610f9257829003601f168201915b50505091835250506000848152600160208181526040808420808401546001600160a01b03908116848801526002820154838801526003808301546060808a019190915260048401546080808b0191909152600585015460a0808c01919091528651808201885260068701548152600787015490951685890152600886015485880152600986015492850192909252600a85015460ff90811615159185019190915260c08a01939093528451908101909452958a905293909252600b9091015460e09094019390928392919091169081111561108d5761108d6135a0565b8152604080516020818101835260008981526001808352848220600c8101546001600160a01b0390811686528488019590955285518087018752601082015481526011820154861681860152868801528551808701875260128201548152601382015486168186015260608089019190915286519081018752601482015481526015820154818601526016820154909516958501959095526080909501929092529385528790529082526017015491019060ff166003811115611152576111526135a0565b905292915050565b6002602052816000526040600020818154811061117657600080fd5b6000918252602090912060059091020180546001820154600283015460038401546004909401549295506001600160a01b039091169350919060ff1685565b6000818152600160208190526040909120015481906001600160a01b031633036112215760405162461bcd60e51b815260206004820152601c60248201527f41732063726561746f7220796f752063616e277420646f207468697300000000604482015260640161040a565b816000808281526001602052604090206017015460ff166003811115611249576112496135a0565b146112965760405162461bcd60e51b815260206004820152601260248201527f41756374696f6e206e6f74206163746976650000000000000000000000000000604482015260640161040a565b60008181526001602052604090206003015442106112f65760405162461bcd60e51b815260206004820152600f60248201527f41756374696f6e20657870697265640000000000000000000000000000000000604482015260640161040a565b6000838152600160205260409020600701546001600160a01b0316330361135f5760405162461bcd60e51b815260206004820152601a60248201527f596f7520616c726561647920706c616365206265737420626964000000000000604482015260640161040a565b6000838152600160205260409020600c01546001600160a01b031633036113c85760405162461bcd60e51b815260206004820152601760248201527f417262697465722063616e7420706c6163652062696473000000000000000000604482015260640161040a565b600083815260016020526040902060048101546008909101541561140c57600084815260016020526040902060058101546008909101546114099190613a6e565b90505b34600061141882610ee5565b90506114248183613a81565b9150828210156114765760405162461bcd60e51b815260206004820152601260248201527f496e76616c69642062696420616d6f756e740000000000000000000000000000604482015260640161040a565b6000868152600160205260408120600201805491611493836139e2565b919050555080600560008282546114aa9190613a6e565b9250508190555060006040518060a00160405280600160008a8152602001908152602001600020600201548152602001336001600160a01b0316815260200184815260200142815260200160001515815250905080600160008981526020019081526020016000206006016000820151816000015560208201518160010160006101000a8154816001600160a01b0302191690836001600160a01b03160217905550604082015181600201556060820151816003015560808201518160040160006101000a81548160ff021916908315150217905550905050600260008881526020019081526020016000208190806001815401808255809150506001900390600052602060002090600502016000909190919091506000820151816000015560208201518160010160006101000a8154816001600160a01b0302191690836001600160a01b03160217905550604082015181600201556060820151816003015560808201518160040160006101000a81548160ff02191690831515021790555050506040518060a001604052806001600381111561164b5761164b6135a0565b8152600060208083018290526040808401839052606084018890526080909301829052338252600380825283832060045484529091529190208251815491929091839160ff199091169060019084908111156116a9576116a96135a0565b0217905550602082810151825474ffffffffffffffffffffffffffffffffffffffff0019166101006001600160a01b03909216919091021782556040808401516001808501919091556060808601516002808701919091556080909601516003909501805460ff19169515159590951790945560008c8152908352819020909301548351908152339181019190915291820185905288917f6f7e354ea3ab5c288aea37fce29c603f9a98a3b040f6d8f32f10e192ec47ff6a9101610b48565b6000895111801561177a575060108951105b6117ec5760405162461bcd60e51b815260206004820152603460248201527f5469746c65206c656e677468206d75737420626520677265617465722074686160448201527f6e203020616e64206c657373207468616e203136000000000000000000000000606482015260840161040a565b6000871180156117fc5750600086115b61186e5760405162461bcd60e51b815260206004820152603060248201527f53746172742062696420616e64206269642073746570206d757374206265206760448201527f726561746572207468616e207a65726f00000000000000000000000000000000606482015260840161040a565b4285116118bd5760405162461bcd60e51b815260206004820152601660248201527f456e642074696d65206d7573742062652076616c696400000000000000000000604482015260640161040a565b336001600160a01b038216036119215760405162461bcd60e51b8152602060048201526024808201527f4172626974657220616e642063726561746f722063616e74206265207468652060448201526373616d6560e01b606482015260840161040a565b60048054906000611931836139e2565b9091555050600454600090815260016020819052604090912090810180546001600160a01b03191633179055806119688b82613adb565b5060038101869055600481018890556005810187905560178101805460ff19169055611998818a8787878761213d565b6004546040513381527f5d551e2a2cc977fd8c530317059b4f2d9f504fb82f7dfad736f8d56679bcdfd09060200160405180910390a250505050505050505050565b6119e2611e97565b6119eb81611e43565b50565b806001600160a01b038116611a375760405162461bcd60e51b815260206004820152600f60248201526e496e76616c6964206164647265737360881b604482015260640161040a565b60008381526001602052604090206003015483904211611a995760405162461bcd60e51b815260206004820152601360248201527f41756374696f6e206e6f74206578706972656400000000000000000000000000604482015260640161040a565b833315801590611b0a5750600081815260016020819052604090912001546001600160a01b0316331480611ae657506000818152600160205260409020600701546001600160a01b031633145b80611b0a57506000818152600160205260409020600c01546001600160a01b031633145b611b4c5760405162461bcd60e51b8152602060048201526013602482015272596f752063616e27742063616c6c207468697360681b604482015260640161040a565b600085815260016020526040812090600b82015460ff166003811115611b7457611b746135a0565b14611bc15760405162461bcd60e51b815260206004820152601260248201527f496e76616c696420617373657420747970650000000000000000000000000000604482015260640161040a565b600c810180546001600160a01b03163303611c1e5760405162461bcd60e51b815260206004820152601660248201527f417262697465722063616e742063616c6c207468697300000000000000000000604482015260640161040a565b80546001600160a01b0390811690871603611c7b5760405162461bcd60e51b815260206004820152601960248201527f5468652073616d6520617262697465722070726f766964656400000000000000604482015260640161040a565b60018201546001600160a01b0390811690871603611ce75760405162461bcd60e51b8152602060048201526024808201527f4172626974657220616e642063726561746f722063616e74206265207468652060448201526373616d6560e01b606482015260840161040a565b60078201546001600160a01b0390811690871603611d6d5760405162461bcd60e51b815260206004820152602760248201527f4172626974657220616e6420626573744269646465722063616e74206265207460448201527f68652073616d6500000000000000000000000000000000000000000000000000606482015260840161040a565b3360009081526001828101602081815260408085206001600160a01b038c8116808852918452828720805460ff1916871790559488015490941685529181528184209284529190915290205460ff168015611df4575060078201546001600160a01b0390811660009081526001830160209081526040808320938a168352929052205460ff165b15611e0857611e0387876121da565b610b51565b6040516001600160a01b038716815287907f3c51619398f1abe48a942eb01a1340dbec59abec0feffa9127bce5a8abbda88b90602001610b48565b611e4b611e97565b6001600160a01b038116611e8e576040517f1e4fbdf70000000000000000000000000000000000000000000000000000000081526000600482015260240161040a565b6119eb81611edd565b6000546001600160a01b03163314610c09576040517f118cdaa700000000000000000000000000000000000000000000000000000000815233600482015260240161040a565b600080546001600160a01b038381166001600160a01b0319831681178455604051919092169283917f8be0079c531659141344cd1fd0a4f28419497f9722a3daafe3b4186f6b6457e09190a35050565b816004541015611f7f5760405162461bcd60e51b815260206004820152601260248201527f496e76616c69642061756374696f6e2069640000000000000000000000000000604482015260640161040a565b6000828152600160205260408120600b015460ff1690816003811115611fa757611fa76135a0565b0361201a5760405162461bcd60e51b815260206004820152602a60248201527f417373657420776974682074686973207479706520646f6e7420737570706f7260448201527f7420776974686472617700000000000000000000000000000000000000000000606482015260840161040a565b6000838152600160208181526040808420909201546001600160a01b0316835260038082528284208785529091529120015460ff161561209c5760405162461bcd60e51b815260206004820181905260248201527f546f6b656e20686173206265656e20616c72656164792077697468647261776e604482015260640161040a565b60018160038111156120b0576120b06135a0565b036120bf57610ee08383612283565b60028160038111156120d3576120d36135a0565b036120e257610ee08383612387565b60038160038111156120f6576120f66135a0565b03610ee057610ee083836124aa565b6000600b83015460ff166003811115612120576121206135a0565b146121335761212f82826125e7565b5050565b61212f828261280f565b6000856003811115612151576121516135a0565b03612165576121608682612ab4565b6121d2565b6001856003811115612179576121796135a0565b0361218957612160868584612b2e565b600285600381111561219d5761219d6135a0565b036121ad57612160868585612d66565b60038560038111156121c1576121c16135a0565b036121d2576121d286858585613059565b505050505050565b806001600160a01b0381166122235760405162461bcd60e51b815260206004820152600f60248201526e496e76616c6964206164647265737360881b604482015260640161040a565b600083815260016020908152604091829020600c0180546001600160a01b0319166001600160a01b038616908117909155915191825284917fc8d8ceeeb85b71e935c56c5b01b3172ac921f56f0174509be0c62f01e84c39059101610765565b600082815260016020526040902060118101546010909101906001600160a01b03166122e55780546040516001600160a01b0384169180156108fc02916000818181858888f193505050501580156122df573d6000803e3d6000fd5b50612307565b600181015481546001600160a01b039091169061230590829085906132eb565b505b60008381526001602081815260408084208301546001600160a01b0390811685526003808452828620898752845282862001805460ff19169094179093558454815193871684529183019190915281019190915283907ff895d2e103603a54f3c09d322ea7b813007f4f3d4f609c3d17f04c737f39f2f890606001610765565b6000828152600160209081526040918290208251808401845260128201548082526013909201546001600160a01b0390811693820184905293516323b872dd60e01b8152306004820152938516602485015260448401919091529181906323b872dd90606401600060405180830381600087803b15801561240757600080fd5b505af115801561241b573d6000803e3d6000fd5b50505060008581526001602081815260408084208301546001600160a01b03908116855260038084528286208b8752845282862001805460ff191690941790935586518151938916845291830193909352918101919091528591507ff895d2e103603a54f3c09d322ea7b813007f4f3d4f609c3d17f04c737f39f2f8906060015b60405180910390a250505050565b60008281526001602090815260408083208151606081018352601482015480825260158301549482018590526016909201546001600160a01b039081168285018190529351637921219560e11b815230600482015290871660248201526044810192909252606482019390935260a0608482015260a48101939093529091819063f242432a9060c401600060405180830381600087803b15801561254d57600080fd5b505af1158015612561573d6000803e3d6000fd5b50505060008581526001602081815260408084208301546001600160a01b03908116855260038084528286208b8752845294829020909401805460ff19169093179092558581015186518351948916855291840152908201528591507ff895d2e103603a54f3c09d322ea7b813007f4f3d4f609c3d17f04c737f39f2f89060600161249c565b8033158015906126585750600081815260016020819052604090912001546001600160a01b031633148061263457506000818152600160205260409020600701546001600160a01b031633145b8061265857506000818152600160205260409020600c01546001600160a01b031633145b61269a5760405162461bcd60e51b8152602060048201526013602482015272596f752063616e27742063616c6c207468697360681b604482015260640161040a565b60018301546001600160a01b0316330361275857600a83015460ff16156127035760405162461bcd60e51b815260206004820152601f60248201527f42696420616c72656164792068617665206265656e2077697468647261776e00604482015260640161040a565b600183015460088401546040516001600160a01b039092169181156108fc0291906000818181858888f19350505050158015612743573d6000803e3d6000fd5b50600a8301805460ff19166001179055612771565b60078301546127719083906001600160a01b0316611f2d565b600a83015460ff1680156127ae575060018301546001600160a01b03166000908152600360208181526040808420868552909152909120015460ff165b15610ee05760178301805460ff1916600117905560078301546008840154604080516001600160a01b039093168352602083019190915283917f4d9113a1377d665eaa1f9168a9c9080f2e488cb820b10149de3d6d2e0f2780c79101610765565b6000818152600160205260409020600a0154819060ff16156128735760405162461bcd60e51b815260206004820152601f60248201527f42696420616c72656164792068617665206265656e2077697468647261776e00604482015260640161040a565b8133158015906128e45750600081815260016020819052604090912001546001600160a01b03163314806128c057506000818152600160205260409020600701546001600160a01b031633145b806128e457506000818152600160205260409020600c01546001600160a01b031633145b6129265760405162461bcd60e51b8152602060048201526013602482015272596f752063616e27742063616c6c207468697360681b604482015260640161040a565b336000908152600e85016020526040808220805460ff191660019081179091558601546001600160a01b0316825281205460ff161561296d5780612969816139e2565b9150505b60078501546001600160a01b03166000908152600e8601602052604090205460ff16156129a2578061299e816139e2565b9150505b600c8501546001600160a01b03166000908152600e8601602052604090205460ff16156129d757806129d3816139e2565b9150505b600281101580156129f4575060018501546001600160a01b031633145b15612aad57600185015460088601546040516001600160a01b039092169181156108fc0291906000818181858888f19350505050158015612a39573d6000803e3d6000fd5b5060178501805460ff199081166001908117909255600a87018054909116909117905560078501546008860154604080516001600160a01b039093168352602083019190915285917f4d9113a1377d665eaa1f9168a9c9080f2e488cb820b10149de3d6d2e0f2780c7910160405180910390a25b5050505050565b806001600160a01b038116612afd5760405162461bcd60e51b815260206004820152600f60248201526e496e76616c6964206164647265737360881b604482015260640161040a565b50600b8201805460ff19169055600c90910180546001600160a01b0319166001600160a01b03909216919091179055565b60008111612b7e5760405162461bcd60e51b815260206004820152601460248201527f496e76616c696420455243323020616d6f756e74000000000000000000000000604482015260640161040a565b6000612b8982610ee5565b90506001600160a01b038316612bfc57348214612be85760405162461bcd60e51b815260206004820152601260248201527f496e76616c69642045544820616d6f756e740000000000000000000000000000604482015260640161040a565b612bf28183613a81565b6010850155612c5d565b82612c126001600160a01b03821633308661335f565b60405180604001604052808385612c299190613a81565b81526001600160a01b039283166020918201528151601088015501516011860180546001600160a01b031916919092161790555b8060056000828254612c6f9190613a6e565b9091555050600b84018054600160ff1991821681179092556040805160a0810182528381526001600160a01b038716602080830191909152600082840181905260108a0154606084015260808301819052338152600380835284822060045483529092529290922081518154929591949093859390911691908490811115612cf957612cf96135a0565b02179055506020820151815474ffffffffffffffffffffffffffffffffffffffff0019166101006001600160a01b039092169190910217815560408201516001820155606082015160028201556080909101516003909101805460ff191691151591909117905550505050565b816001600160a01b038116612daf5760405162461bcd60e51b815260206004820152600f60248201526e496e76616c6964206164647265737360881b604482015260640161040a565b8282612dfd5760405162461bcd60e51b815260206004820152600f60248201527f496e76616c696420617373657449640000000000000000000000000000000000604482015260640161040a565b6040517f081812fc0000000000000000000000000000000000000000000000000000000081526004810184905230906001600160a01b0383169063081812fc90602401602060405180830381865afa158015612e5d573d6000803e3d6000fd5b505050506040513d601f19601f82011682018060405250810190612e819190613b9a565b6001600160a01b031614612ed75760405162461bcd60e51b815260206004820152601d60248201527f4552433732313a20696e73756666696369656e7420617070726f76616c000000604482015260640161040a565b6040516323b872dd60e01b8152336004820152306024820152604481018490526001600160a01b038216906323b872dd90606401600060405180830381600087803b158015612f2557600080fd5b505af1158015612f39573d6000803e3d6000fd5b50505050600b85018054600260ff1991821681179092556040805180820182528681526001600160a01b03858116602092830181905260128b0189905560138b0180546001600160a01b0319169091179055825160a08101845294855288168482015283820187905260006060850181905260808501819052338152600380835283822060045483529092529190912083518154919390928492909116906001908490811115612feb57612feb6135a0565b02179055506020820151815474ffffffffffffffffffffffffffffffffffffffff0019166101006001600160a01b039092169190910217815560408201516001820155606082015160028201556080909101516003909101805460ff19169115159190911790555050505050565b826001600160a01b0381166130a25760405162461bcd60e51b815260206004820152600f60248201526e496e76616c6964206164647265737360881b604482015260640161040a565b600082116130f25760405162461bcd60e51b815260206004820152601660248201527f496e76616c6964204552433131353520616d6f756e7400000000000000000000604482015260640161040a565b600083116131425760405162461bcd60e51b815260206004820152600f60248201527f496e76616c696420617373657449640000000000000000000000000000000000604482015260640161040a565b604051637921219560e11b8152336004820152306024820152604481018490526064810183905260a06084820152600060a482015284906001600160a01b0382169063f242432a9060c401600060405180830381600087803b1580156131a757600080fd5b505af11580156131bb573d6000803e3d6000fd5b50505050600b86018054600360ff199182168117909255604080516060808201835288825260208083018990526001600160a01b0387811693850184905260148d018b905560158d018a905560168d0180546001600160a01b031916909417909355835160a081018552868152928b16838201528284018a9052908201889052600060808301819052338152858252838120600454825290915291909120815181549294919390928492911690600190849081111561327c5761327c6135a0565b02179055506020820151815474ffffffffffffffffffffffffffffffffffffffff0019166101006001600160a01b039092169190910217815560408201516001820155606082015160028201556080909101516003909101805460ff1916911515919091179055505050505050565b6040516001600160a01b03838116602483015260448201839052610ee091859182169063a9059cbb906064015b604051602081830303815290604052915060e01b6020820180517bffffffffffffffffffffffffffffffffffffffffffffffffffffffff8381831617835250505050613398565b6040516001600160a01b038481166024830152838116604483015260648201839052610e069186918216906323b872dd90608401613318565b600080602060008451602086016000885af1806133bb576040513d6000823e3d81fd5b50506000513d915081156133d35780600114156133e0565b6001600160a01b0384163b155b15610e06576040517f5274afe70000000000000000000000000000000000000000000000000000000081526001600160a01b038516600482015260240161040a565b6040518061012001604052806060815260200160006001600160a01b031681526020016000815260200160008152602001600081526020016000815260200161349e6040518060a001604052806000815260200160006001600160a01b0316815260200160008152602001600081526020016000151581525090565b81526020016135136040805160a08101825260008082528251602080820185528282528084019190915283518085018552828152808201839052838501528351808501909452818452830152906060820190815260408051606081018252600080825260208281018290529282015291015290565b81526020016000905290565b6000806040838503121561353257600080fd5b50508035926020909101359150565b60006020828403121561355357600080fd5b5035919050565b6000815180845260005b8181101561358057602081850181015186830182015201613564565b506000602082860101526020601f19601f83011685010191505092915050565b634e487b7160e01b600052602160045260246000fd5b600481106119eb57634e487b7160e01b600052602160045260246000fd5b80516135df816135b6565b808352506001600160a01b036020820151511660208301526040810151805160408401526001600160a01b036020820151166060840152506060810151805160808401526001600160a01b0360208201511660a0840152506080810151610ee060c084018280518252602080820151908301526040908101516001600160a01b0316910152565b61366f816135b6565b9052565b60208152600082516102a060208401526136916102c084018261355a565b905060208401516136ad60408501826001600160a01b03169052565b506040840151606084015260608401516080840152608084015160a084015260a084015160c084015260c084015161371e60e0850182805182526001600160a01b03602082015116602083015260408101516040830152606081015160608301526080810151151560808301525050565b5060e08401516137326101808501826135d4565b506101008401516137476102a0850182613666565b509392505050565b634e487b7160e01b600052604160045260246000fd5b80356004811061377457600080fd5b919050565b6001600160a01b03811681146119eb57600080fd5b803561377481613779565b60008060008060008060008060006101208a8c0312156137b857600080fd5b893567ffffffffffffffff8111156137cf57600080fd5b8a01601f81018c136137e057600080fd5b803567ffffffffffffffff8111156137fa576137fa61374f565b604051601f8201601f19908116603f0116810167ffffffffffffffff811182821017156138295761382961374f565b6040528181528282016020018e101561384157600080fd5b81602084016020830137600060208383010152809b5050505061386660208b01613765565b975060408a0135965060608a0135955060808a0135945061388960a08b0161378e565b935060c08a0135925060e08a013591506138a66101008b0161378e565b90509295985092959850929598565b6000602082840312156138c757600080fd5b81356138d281613779565b9392505050565b600080604083850312156138ec57600080fd5b8235915060208301356138fe81613779565b809150509250929050565b60008060008060008060a0878903121561392257600080fd5b863561392d81613779565b9550602087013561393d81613779565b94506040870135935060608701359250608087013567ffffffffffffffff81111561396757600080fd5b8701601f8101891361397857600080fd5b803567ffffffffffffffff81111561398f57600080fd5b8960208284010111156139a157600080fd5b60208201935080925050509295509295509295565b634e487b7160e01b600052603260045260246000fd5b634e487b7160e01b600052601160045260246000fd5b6000600182016139f4576139f46139cc565b5060010190565b8082028115828204841417610f0157610f016139cc565b600082613a2f57634e487b7160e01b600052601260045260246000fd5b500490565b600181811c90821680613a4857607f821691505b602082108103613a6857634e487b7160e01b600052602260045260246000fd5b50919050565b80820180821115610f0157610f016139cc565b81810381811115610f0157610f016139cc565b601f821115610ee057806000526020600020601f840160051c81016020851015613abb5750805b601f840160051c820191505b81811015612aad5760008155600101613ac7565b815167ffffffffffffffff811115613af557613af561374f565b613b0981613b038454613a34565b84613a94565b6020601f821160018114613b3d5760008315613b255750848201515b600019600385901b1c1916600184901b178455612aad565b600084815260208120601f198516915b82811015613b6d5787850151825560209485019460019092019101613b4d565b5084821015613b8b5786840151600019600387901b60f8161c191681555b50505050600190811b01905550565b600060208284031215613bac57600080fd5b81516138d28161377956fea26469706673582212201fa92bc97c41bb11c46170da743f5ba726a65c13b3288f063a80f0b53e35294564736f6c634300081c0033",
  "linkReferences": {},
  "deployedLinkReferences": {}
}